:1000000078030120B59300007D92010075920000F5
:1000100075920000759200007592000075920000C4
:10002000759200007592000075920000F990000032
:100030007592000075920000A59000005592010095
:10004000759300001924010075930000759300005A
:100050007593000075930000759300007593000080
:100060007593000075930000759300007593000070
:100070007593000075930000759300007593000060
:100080007593000075930000759300007593000050
:100090007593000075930000759300007593000040
:1000A0007593000075930000759300007593000030
:1000B0007593000075930000759300007593000020
:1000C0007593000075930000759300007593000010
:1000D0007593000075930000759300007593000000
:1000E00075930000759300007593000075930000F0
:1000F00075930000759300007593000075930000E0
:100100007BB972B90029BEBF00204FF0004106E064
:1001100008BF00281CBF6FF000414FF0FF3000F017
:10012000BFB9ADF1080C6DE904CE002909DB002B45
:100130001ADB00F04DF8DDF804E0DDE9022304B03D
:100140007047404261EB4101002B1BDB00F040F89F
:10015000DDF804E0DDE9022304B0404261EB410137
:10016000524263EB43037047524263EB430300F098
:100170002FF8DDF804E0DDE9022304B0404261EB32
:1001800041017047524263EB430300F021F8DDF870
:1001900004E0DDE9022304B0524263EB43037047FD
:1001A00053B94AB9002908BF00281CBF4FF0FF31DE
:1001B0004FF0FF3000F074B9ADF1080C6DE904CEDA
:1001C00000F006F8DDF804E0DDE9022304B0704732
:1001D0002DE9F047089E04468846002B40F08580B4
:1001E0008A42154648D9B2FA82F24AB1C2F12007D2
:1001F00001FA02F320FA07F7954047EA0308944012
:100200004FEA154E230CB8FBFEF71FFA85FC0EFBD8
:10021000178843EA084307FB0CF1994209D9EB1808
:1002200007F1FF3080F0E380994240F2E080023F26
:100230002B445B1AA4B2B3FBFEF00EFB103344EA6E
:10024000034400FB0CFCA44509D92C1900F1FF3331
:1002500080F0CB80A44540F2C88002382C4440EAAC
:100260000740A4EB0C0400271EB1D4400023C6E9CC
:1002700000433946BDE8F087002A53D0B2FA82F233
:10028000002A40F0B680491B4FEA154E1FFA85F848
:100290000127B1FBFEFC230C0EFB1C1143EA0143BA
:1002A00008FB0CF1994207D9EB180CF1FF3002D290
:1002B000994200F2EC808446591AA3B2B1FBFEF0D9
:1002C0000EFB101443EA044408FB00F8A04507D9CC
:1002D0002C1900F1FF3302D2A04500F2DC80184651
:1002E000A4EB080440EA0C40BEE78B4208D9002E7C
:1002F00078D00027C6E9000138463946BDE8F087C6
:10030000B3FA83F77FB98B4202D3824200F2BD80F9
:10031000841A61EB030301209846002EA9D0C6E998
:100320000048A6E7FFDEC7F12005BB4022FA05FC26
:100330004CEA030C01FA07F420FA05F821FA05F358
:100340004FEA1C4E48EA0404B3FBFEF9210C0EFBF5
:1003500019331FFA8CF841EA034309FB08FA9A455E
:1003600002FA07F200FA07F10BD91CEB030309F1BB
:10037000FF3080F088809A4540F28580A9F102091B
:100380006344A3EB0A03A4B2B3FBFEF00EFB1033ED
:1003900044EA034400FB08F8A04508D91CEB040418
:1003A00000F1FF336BD2A04569D90238644440EABA
:1003B0000940A4EB0804A0FB02894C45C6464B4605
:1003C00054D351D0002E69D0B1EB0E0264EB03047C
:1003D00004FA05F522FA07F3FC401D43C6E9005470
:1003E000002746E73746304643E7184637E70746D3
:1003F0001FE7C2F1200320FA03F7954001FA02F04B
:1004000021FA03F34FEA154E3843010CB3FBFEF714
:100410001FFA85F80EFB173341EA034107FB08F387
:100420008B4204FA02F407D9691807F1FF3C28D27D
:100430008B4226D9023F2944CB1A81B2B3FBFEF08E
:100440000EFB103341EA034100FB08F38B4207D94E
:10045000691800F1FF3C10D28B420ED902382944B2
:10046000C91A40EA074714E74145ABD2B8EB020E80
:1004700069EB0C0201381346A4E76046F0E7184622
:1004800095E76746D8E781467BE7384645E7ACF114
:10049000020C2B4410E702382C4421E73746E8E6EB
:1004A000704700BF000000002DE9F04F93B00890A6
:1004B0000B91014600684C681C9E09920028069327
:1004C000C0F24881A0424FF0000338BF20460C9391
:1004D000089BDA683D320023FF21024488461C460F
:1004E0000D928DF839100791ADF83A30CDE90F3300
:1004F0009B4605931D460DF144090DF13C0A52E05F
:100500009DF83920FF2A6AD0B8F1FF0F09D0109B5F
:100510005B4506D04FF4B551A14805F0E5FA9DF8CA
:100520003920052A40F2AE809E4991F810310733F8
:100530009A4280F2A780062A00F0A380079BFF2B37
:1005400040F01881073AD1F8080192B24FF4B67121
:100550000AF030F9089B8342337822D00B9A1AB9FB
:1005600090F91D20002A1CDBD0E9002E0C9F0F996A
:10057000002A39440F46C0F29B80724538BF72464C
:1005800094460999C26809683D326244B9420A92A8
:10059000C0F098800A9ADDF840B09DF83980059245
:1005A0003D469C4271D2804BCDF80890CDE900A326
:1005B000022710AB0DF139020121002011970BF039
:1005C0005BF9B84269D0119B002B99D041F2976139
:1005D000734805F089FA9DF83920FF2A94D1099BC8
:1005E0001A683378954238BF1546A34243D9059B14
:1005F0006E4FEB18A3FB0701072202FB031166A352
:10060000D3E90023FFF7CCFD694AA2FB001306994A
:10061000C3F38F239942ADF83A3040F2B28090464E
:100620000FF2741BDBE900AB0BE0FFF7B9FDA8FB91
:100630000030069BC0F38F209842ADF83A0080F05E
:10064000A0801D9B022203EB44000DF13A0118F03B
:1006500089FE059996F800C00134283501EB050E96
:10066000E4B24FF00709AEFB0701A44552465B46D2
:1006700009FB0E11D9D8099B1D60347013B0BDE879
:10068000F08F079233789C428DD39DF83930FF2B41
:100690007BD0347013B0BDE8F08F119B022B92D148
:1006A000012100200BF070F9119B022BF8D08AE792
:1006B00022F0004C826896452CBF7744BF18A7EB08
:1006C0000C075EE78D4238BF0D469C4239D2059B30
:1006D0000D9A1C9603EB02081DE0FFF761FD344EF6
:1006E0001D990346A6FB0363069EC3F38F23B34203
:1006F00001EB44004FF002020DF13A01ADF83A303F
:1007000005F128052FD218F02DFE1C9B01341B7813
:10071000E4B2A34214D9294638460BF04FF9059BA1
:10072000224A2B44A3FB02BC072202FB03CC404518
:1007300019A3D3E90023584661464FF0000BCCD2F1
:100740001C9E099ABDF83A301560069A9A420FD954
:1007500033781FE78B6820F000409C422CBF031BBE
:10076000C31A0C93B4E6099B1C9EC3F800B05D4607
:100770009DF83920FF2A3FF432AF347013B0BDE842
:10078000F08F099B00251D6077E7099B1B689D4240
:1007900038BF1D466FE700BF00CA9A3B000000004B
:1007A00008AD0100C81F002029DB00008D49FD1A9B
:1007B0005917B7D1000000002DE9F043B0F8E02050
:1007C00089B0054640F2E243454805AE03FB02F31B
:1007D000002483FB000106273FA3D3E900238DF803
:1007E0000D7074600594B460FFF7DAFC0DF10D0232
:1007F00001960490B5F8D6300092284604AA01214B
:10080000FFF752FE05F1E00905F1EC080227494621
:1008100002220DF10E0018F0A5FD9DF80D1099B102
:1008200001390DF11603C9B2BDF80E2017FB0131D5
:100830004FF6FF7C3346624503D01888824239D098
:10084000012402339942F6D109F10209C845DED1EB
:10085000D5F88C00FCB195F8742095F8D03085F867
:10086000752085F8D13010F8053C1E4A0021C2F8E9
:10087000881143F00303032511240F21202200F8DF
:10088000053C00F8045C00F8024C00F8011C027002
:1008900009B0BDE8F083BDF8142040F2E24303FB49
:1008A00002F33146C5F88430022218F05BFD09B02E
:1008B000BDE8F08340F2E24303FB02F2C5F8842076
:1008C0000DF10E01D5F88C00022218F04BFD09B095
:1008D000BDE8F083AFF300808D49FD1A07000000EA
:1008E00000CA9A3BC81F00202DE9F04F8FB01C466C
:1008F00009934FF0FF0B00239046DFF83491DFF8A7
:1009000034A123600A1D0493044608920C930593B6
:100910008DF82FB00DAF0CAE0225CDE901970096F2
:1009200043460DF12F02214600200D950AF0A4FF49
:1009300002285DD00D9B002B3AD19DF82F20FF2A75
:100940003FD0062AE9D99AF8103107339A42E4DAFF
:10095000073A92B24FF4B671DAF8080109F02AFFAB
:100960000028DAD090F91D30002BD6DB02680C9BF2
:100970004168002A47DB8A4238BF0A469446C2686B
:10098000BBF1FF0F02F1040262440CD005990792FB
:10099000184606930BF012F8049B089A991888429F
:1009A000DDE9063210D8CDE904239DF82FB0B4E775
:1009B00041F2DB511C4805F097F89DF82F20FF2AE3
:1009C000BFD1BBF1FF0F10D0DDE90423174813445A
:1009D000A3FB0001072202FB031111A3D3E90023AB
:1009E000FFF7DEFB099B803018600FB0BDE8F08F89
:1009F0000D9B022B9ED1214600200AF0C5FF0D9BC6
:100A0000022BF8D096E722F0004C826891422CBF6E
:100A10005B189B18A3EB0C03B1E700BFAFF300809A
:100A200000CA9A3B0000000008AD01008D49FD1A84
:100A300029DB0000C81F002070B51C4682B0164696
:100A40000546273101AA01200196FFF74DFF2368D3
:100A500013B30198831B1B0220D431460AF0AEFF6A
:100A6000154A0721A0FB022301FB0033194610465B
:100A70000FA3D3E90023FFF793FB23681844002852
:100A8000206009DB40F2E24303FB05F3984203D9FF
:100A9000C01A9842FCD8206002B070BD074841F2ED
:100AA0002F6105F021F80198D7E700BFAFF3008070
:100AB00000CA9A3B000000008D49FD1A08AD0100F4
:100AC0002DE9F0438DB00221FF220023A24EDFF872
:100AD0009882A24F099181468DF823200A9309AD8F
:100AE0000AAC08E09DF82320FF2A1CD097F81031AB
:100AF00007339A422BDBCDE9016500940BAB0DF176
:100B00002302012100200AF0B7FE022814D0099B1D
:100B1000002BE7D041F23551404604F0E5FF9DF847
:100B20002320FF2AE2D18E4B1B7813B101200EF057
:100B300037F90DB0BDE8F083099B022BE7D1012105
:100B400000200AF021FF099B022BF8D0DFE7531F9A
:100B5000DBB2F92BE7D85FFA89F9B9F1060F00F299
:100B60009D80B9F1050F1ED0B9F1060F40F0A480A9
:100B70007C4B0026D3E900140029B8BF9968DD68D2
:100B80008C4238BF0C46062A00F29E80052A00F0EF
:100B9000A980062A0AD041F25351734804F0A4FFF9
:100BA00000239B68FFDE0026704BE3E7DFF8B4818B
:100BB0000027D8E90131D8F80000DFF8A4C1994234
:100BC00038BF194600282C449CF800200A9B0D468B
:100BD00010DB04F13101994218D212B101200EF05C
:100BE000DFF840469DF8232001210EF019FA0DB0E0
:100BF000BDE8F08320F00041A1EB050E9E4503D235
:100C00002B445B1A0A93E4E700230A935AB90121A3
:100C100008468CF80010564B114609F067FE002874
:100C20007CD1D8F80000002801DBA8425ED8002E55
:100C30003FF47FAF002F3FF47CAFB28CBB8C93426C
:100C40007FF477AF40F2E2424A4802FB03F383FBB2
:100C500000013FA3D3E90023FFF7A2FA0A9B20F08B
:100C60007F40984203D21B1A8342FCD80A9396F91C
:100C70001D1097F91D20002956DB002ABFF659AF39
:100C800014349C427FF655AF38460CF0FDFF022825
:100C90007FF44FAF30460CF0F7FF4AE7A9F10709A0
:100CA0001FFA89F24FF4B671D7F8080109F082FDF6
:100CB00006460346002848D141F245512A4804F02F
:100CC00013FF00231B68FFDE073AD7F8080192B232
:100CD0004FF4B67109F06EFD0746804600283FF4D8
:100CE0005AAF66E7DFF88480002762E7224A431B99
:100CF00000200293CDE90528CDE90300CDE90000ED
:100D00009DF8232001210AF01FFD30F002038ED050
:100D100041F28551144804F0E7FE88E741F28D4125
:100D2000114804F0E1FE7CE7002AFFF602AF14341C
:100D30009C427FF6FEAE30460CF0A6FF02287FF400
:100D4000F8AE38460CF0A0FFF3E69DF8232011E73B
:100D50008D49FD1A0700000029DB0000C81F002094
:100D600068B200209820002008AD0100E01F00209C
:100D70006019012000CA9A3B3DDB00000000000022
:100D80002DE9F04F824E96F810C091B00746884684
:100D900015461C46BCF1000F40F0F38094F820305B
:100DA00094F91D200733DBB2002A337409DAD4E941
:100DB0001621636D05FB03330B44934228BF134692
:100DC000E365228D608C94F8751094F874301544A6
:100DD000ADB2258599420544ADB211D005200EF083
:100DE0009BFC94F8769009F1FF33052B00F24B84BD
:100DF000DFE813F0F6017A039C0349040E04D800DF
:100E000094F866315B0751D494F8952094F89430A7
:100E10009A4200F03E8405200EF07EFC94F8942067
:100E200094F895309B1AD8073AD594F8501011F0E1
:100E3000200A00F0A58484F8952096F8422196F8BF
:100E400041319A42C1F04A8096F84131D31ADBB25F
:100E5000012B41F2CC8596F84121D6F83C3153F86C
:100E60002230002B01F0C3851A7A218CD98042F000
:100E70000302092102201A7218715972D9720822CC
:100E8000002103F10C000A9318F096FAD4F8982088
:100E90000A9B110A1A73120C59739A730EF0F0FD23
:100EA00094F8752094F874309A4297D194F8A5205C
:100EB00094F8A4309A423CD005200EF02DFC354821
:100EC00009F040FC002834D094F8A43084F8A53010
:100ED0000379022243F0030342710371C27194F853
:100EE000663194F8A62002721A063ED4D4F8502136
:100EF000002A3AD01B0738D4D4F85C319A4204BF98
:100F00001368C4F85C31D4F85431002B00F090849D
:100F1000D4F858311A6802601860C4F858010368A0
:100F2000002B00F0E383E38F012B98BF0133A4F87B
:100F3000443094F8203094F91D10174A174E03944A
:100F4000073316EA210638BF1646DBB2A2680092C4
:100F50000193414638460296231D22460EF010FCAE
:100F60000135658411B0BDE8F08FD4F85431002B01
:100F7000CED1D4F850310360C4E95400C4F858010C
:100F8000CEE742F2B821064804F0AEFD06E700BF06
:100F9000C81F002024210020C1F00000EDF1000056
:100FA00008AD010094F8789019F0010F40F03A86EE
:100FB000B4F87A30EB1A1B043FF578AF94F8383068
:100FC00094F83A1094F8742084F8752019F01C0FE6
:100FD000C3F3C20001F00701B4F836A040F0378730
:100FE000B4F834B019F0E00F16D094F83AE0228E3D
:100FF0004FEA591C6CF3020E1CF0040F84F83AE01F
:1010000001F04D81920102F5747292B2B2F5A47FA3
:1010100081F069824FF4A47AC3F3801262F3C7139C
:1010200019F0020F84F8383005D1DBB2C3F3C203E4
:10103000834201F0368296F8422196F841319A4275
:10104000C0F0288796F84131D31ADBB2012B41F268
:10105000BE8496F84111D6F83C3153F82190B9F18D
:10106000000F01F0B4840023218C89F8083094F833
:101070003830A9F80610C3F3C20389F8093094F890
:101080003A300E21C3F3020389F80A3089F80410BC
:1010900096F841319A4204D142F282514F4804F00D
:1010A00023FD96F8413196F8413196F8401196F8B3
:1010B00042210133DBB2994208BF002386F8413157
:1010C00096F841319A4201F07B8196F84121D6F899
:1010D0003C31D9F8001053F822301B681A68002AF6
:1010E00001F07F805A6849681268C2F80090596020
:1010F000A38E5B4503D3E38E5345BFF4D7AEA4F86C
:1011000034B0A4F836A096F8422196F841319A42BC
:10111000C0F0338796F84131D31ADBB2012B41F28C
:10112000448496F84111D6F83C3153F82190B9F136
:10113000000F01F03A8499F80830218CA9F80610C4
:1011400043F00303092189F8091089F80830238E38
:10115000E08DA9F80C3002211523A9F81000A9F898
:101160000EA0A9F812B089F8041089F80B3096F88F
:1011700041319A4204D142F28251184804F0B4FC41
:1011800096F8413196F8413196F8401196F842218F
:101190000133DBB2994208BF002386F8413196F84B
:1011A00041319A4201F0868196F84111D6F83C31DE
:1011B000D9F8002053F821301B681968002901F084
:1011C000BE80596852680968C1F800905A6094F866
:1011D000673143F0020384F8673167E608AD010028
:1011E000D6F88831002B00F0B08594F8789019F08B
:1011F000030340F08F84B4F880B0A5EB0B0A1FFA0C
:101200008AF211040A923FF551AE94F8D01094F886
:10121000D12094F8740084F875008A4209D094F8BB
:10122000D22002F00702052A04BF84F8D110A4F8E6
:101230004430D6F88831B4F87AA09C4204BF002329
:10124000C6F88831A38C9A4501F05C8096F842215B
:1012500096F841319A42C0F0538796F84131D31A3B
:10126000DBB2012B41F2B68396F84111D6F83C313E
:1012700053F82180B8F1000F01F0AC830021238CDA
:1012800088F80810B4F87C00B4F87E10A8F806308E
:101290000A23A8F80AA0A8F80C00A8F80E1088F8ED
:1012A000043096F841319A4204D142F28251CE483C
:1012B00004F01AFC96F8413196F8413196F8401145
:1012C00096F842210133DBB2994208BF002386F829
:1012D000413196F841319A4201F0FE8096F8411171
:1012E000D6F83C31D8F8002053F821301B68196833
:1012F000002901F0428059685268096894F8789092
:10130000B4F87AA0C1F80080B4F87C105A60B4F840
:101310007E300B910F93D4E90083B8F1000F1A4689
:101320000E930ADAA36828F000489A422CBFBF182F
:10133000FF18C4F80080A7EB08070A9AA38C13FBD8
:1013400002F39BB2B3FBFAF18AB20D921AFB02F2DE
:1013500092B2934280F01A86D31AA44840F2E24235
:1013600002FB03F383FB00019DA3D3E90023FEF7F7
:1013700017FF20F07F40C3190C930D98218D94F92D
:101380001D20ABEB050303440B440E99D4F884B045
:101390002385414538BF414640F2E247002A0E917D
:1013A00007FB0AF5C0F2C48690488DA3D3E9002359
:1013B000ABFB0001FEF7F4FE20F07F40431C0A93D4
:1013C000A8460F980B9F8A4B8A49A4F824A042F2A2
:1013D000107202FB00522B4407F1060CB3FBF5F32D
:1013E00098B2604502F1FF322944B2FBF5F2E7847E
:1013F000B1FBF5F5A4F84A00E287A4F8425002DDFB
:10140000C01B063880B219F0040908BFA4F8409048
:10141000A4F846000121002013F0E8FA002201217F
:101420008246104609F02EFA94F82050724B073588
:10143000EDB2002100952A4608460AF0D7F930F0AF
:10144000020304D041F68251674804F04DFB674B1C
:10145000A8FB0389404662A3D3E900234946FEF76F
:101460009FFE664A20F07F4BABFB02230721B8EBBF
:10147000020001FB0B3369EB03014FF47A72002386
:10148000FEF78EFED4F80C8094F91DC05C4B5D4ACB
:101490000E9F5D49029013EA2C0C38BF94464FF022
:1014A000000E0A9B0093474441F694590C9BCDF8DB
:1014B00004B0CDE9071906942A46CDE9047CCDF89D
:1014C0000CE0714670460AF0E9F830F0020304D0EF
:1014D00041F69651444804F007FBBAF1000F40F082
:1014E0003C87002333743DE594F87830002B40F0BE
:1014F000C782B4F87E30EB1A19043FF5D7AC94F8E4
:10150000743084F8753004F11706052204F179016E
:10151000304617F027FF3046052109F0D7FA637FE0
:10152000012260F3050363772277BFE494F87860C3
:10153000002E7FF4BBAC354809F004F98246002840
:101540003FF4B4AC94F91D30002B80F2D08494F8B1
:101550007960002E00F05087037994F8502043F012
:1015600003039206037140F1DA85D4F898305B07E3
:1015700040F1D585112203234672C2710372002304
:101580008AF8059084F8793094F866311E0600F1E7
:10159000CE83D4F85021002A00F0C983180700F147
:1015A000C683D4F85C319A4204BF1368C4F85C3136
:1015B000D4F85431002B00F0CC87D4F858311A6895
:1015C000CAF80020C3F800A0C4F858A1DAF8003027
:1015D000002B00F0A08594F8743084F8753065E431
:1015E0008D49FD1A0700000008AD010000CA9A3BB2
:1015F0007FC3C901FF59620291DD00008D49FD1AC8
:10160000C1FF0000C5FF000069DD000024210020AB
:10161000AB4809F097F800283FF448AC94F87430D0
:1016200084F875300122427194F866210379122101
:1016300043F00303C1711106037100F11482D4F861
:101640005031002B00F00F82120700F10C82D4F809
:101650005C21934204BF1A68C4F85C21D4F8542179
:10166000002A00F05987D4F858311A6802601860CF
:10167000C4F858010368002B00F07B84B4F84230B2
:10168000A4F8443012E442F23A318E4804F02CFAC5
:101690000CE494F89D2094F89C309A4229D194F857
:1016A000D12094F8D0309A4200F0538305200EF0F8
:1016B00033F8D6F8883113B19C427FF4F1AB94F83B
:1016C000D23003F00703052B01F28A8101A252F800
:1016D00023F000BFCD180000D7190000411800000A
:1016E000A10E0000A10E0000A10E0000C4F86001D0
:1016F00019E405200EF010F894F89C2094F89D3021
:101700009B1ADB077FF5CCAB94F89E30D80740F1ED
:101710007885980740F1BA8684F89D2096F8422192
:1017200096F841319A42C0F0428696F84131D31A78
:10173000DBB2012B41F2418196F84121D6F83C31D0
:1017400053F82230002B01F038811A7A218CD9808D
:1017500042F003021A72022006210C225972DA7238
:10176000187194F89F00B4F8A010B4F8A220A3F860
:101770000F201873A3F80D100EF082F9FFF790BB3D
:101780004F4808F0DFFF814600283FF489AB94F80A
:1017900095304D4AC4F89820013B092284F89530D1
:1017A000427194F91D200379002AACBF08220E2251
:1017B00043F00303C271082203715146104417F02D
:1017C000FBFDD4F8983094F8662189F80830190A9E
:1017D00089F809101B0C110689F80A3000F1708392
:1017E000D4F85031002B00F06B83120700F16883AE
:1017F000D4F85C21934204BF1A68C4F85C21D4F881
:101800005421002A00F0AF87D4F858311A68C9F87B
:101810000020C3F80090C4F85891D9F80030002B8C
:1018200000F03B86B4F84230A4F84430FFF738BBF0
:101830001368036010600368C4E95500FFF770BBCC
:1018400094F8663119073FF52BAB96F8422196F8CC
:1018500041319A42C0F0D68796F84131D31ADBB2B3
:10186000012B7FF61DAB96F84121D6F83C3153F899
:101870002230002B3FF414AB94F8D2101A7AB4F84B
:1018800020C0032060F302010243182084F8D21024
:101890001A725872B4F8D400B4F8D610B4F8D8203C
:1018A0009881B4F8DA00D9811A8202210F22A3F8B4
:1018B00006C058821971DA720EF0E2F8FFF7F0BA3A
:1018C0002421002008AD0100FF490100D04808F0A4
:1018D00039FF00283FF4E4AA94F8D22003790421C8
:1018E00061F3020243F00303182184F8D22003714C
:1018F0004171B4F8D410B4F8D820B4F8D6C001813E
:101900000023B4F8DA100374828194F86621C1814F
:101910000F21C3740375C1714FF0FF331106A0F896
:101920000AC0A0F8115043758375C37503764376DA
:101930008376C37603774377837700F10687D4F8FD
:101940005031002B00F00187120700F1FE86D4F819
:101950005C21934204BF1A68C4F85C21D4F8542176
:10196000002A01F00D80D4F858311A68026018601E
:10197000C4F858010368002B00F04D872268B4F8C2
:101980004230C6F88841002AC4F8F070A4F8443008
:101990000ADAD4E9011322F000428B422CBFFB1873
:1019A0007B189B1AC4F8F030DFF86CC213300122A8
:1019B000C4F8EC00634611460020CCF8084008F05B
:1019C00095FF00283FF46CAA41F67171914804F02C
:1019D0008BF8FFF765BA94F8D390B9F1000F40F097
:1019E000D58694F91D30002BC0F2248794F8751029
:1019F00094F874308B427FF4F1A994F8D23094F8C3
:101A0000DC20C4F88490052060F30203012084F8F0
:101A1000D23084F88800002A00F0AE87B4F8D430C1
:101A2000B3FBF2F3034413FB02F39BB294F8782068
:101A300094F8D200A4F87A30022380F0080063F30F
:101A400001021346C0F3C00262F382030139D4F8E5
:101A5000D80084F87510012284F87830E06784F8A3
:101A60007620FFF71DBAD4F85431002B7FF4FBAD7C
:101A7000D4F850310360C4E95400C4F85801FAE5C1
:101A8000634808F05FFE064600283FF40FAAE38C87
:101A900002792B440633A4F87E3042F0030201237E
:101AA0000020082184F8780032717171F3710522E9
:101AB00004F1790106F1080017F054FC94F866313E
:101AC000B4F87E20A6F80D201A0600F19480D4F810
:101AD0005021002A00F08F80180700F18C80D4F884
:101AE0005C319A4204BF1368C4F85C31D4F85431B5
:101AF000002B00F02685D4F858311A6832601E6039
:101B0000C4F858613368002B7FF4D0A9C4F8606131
:101B1000FFF7CCB93E4808F015FE064600283FF412
:101B2000C5A994F8783003F00303012B00F01C845E
:101B3000022B00F0EE82374841F6B94103F0D4FFA2
:101B40000020E38C94F87810DFF8D0C02B440633E3
:101B50009BB26FF301010C22A4F8803084F8781056
:101B60007271D4F8842094F888E0317986F808E01E
:101B7000ACFB02C2B4F87AC0A6F80BC0B4F87CC0C3
:101B8000A6F80DC0B4F87EC0A6F80FC0D4F800C007
:101B9000A6F81130C2F38F2341F0030200218C45D7
:101BA000A6F809303271F171C4F890700BDAD4E9FB
:101BB00001232CF0004C93422CBFFB18BB18A3EB65
:101BC0000C03C4F89030DFF858C006F10903012275
:101BD000C4F88C30CCF80C00634611460020CCF8D9
:101BE000084008F083FE002840F0C18394F8663175
:101BF00018067FF56CAFD4F85431002B7FF47BAF1F
:101C0000D4F850313360C4E95466C4F858617AE7B7
:101C10002421002008AD0100201901205917B7D157
:101C200010190120E64808F08DFD00283FF43EA978
:101C300094F878C06FF3000C5FFA8CF3C3F3820161
:101C40005A0984F878C051EA020C40F0C38294F833
:101C5000742084F8752013F00202A4F87AC000F012
:101C6000308496F8422196F841319A42C0F05C8463
:101C700096F84131D31ADBB2012B40F2AE8696F8CA
:101C80004121D6F83C3153F82230002B00F0A586D4
:101C90000022218C1A7294F83820D980C2F3C20233
:101CA0005A7294F83A200A900E21C2F302029A72F4
:101CB00019710DF0E5FE94F87820B4F87A300A989E
:101CC000C2F382015209052642724671017294F8EC
:101CD0006611027943810E0642F003034FF01802A9
:101CE0000371C27100F1DF80D4F85031002B00F095
:101CF000DA800A0700F1D780D4F85C21934204BF50
:101D00001A68C4F85C21D4F85421002A00F0368502
:101D1000D4F858311A6802601860C4F85801036892
:101D2000002B7FF4C3A8C4F86001FFF7BFB8D4F854
:101D30005431002B7FF441ACD4F85031CAF8003054
:101D4000C4E954AAC4F858A142E4C6F88841FFF790
:101D50004CBA94F8F92094F8F8309A4200F03481A3
:101D600005200DF0D9FC94F8FA3003F00703072B97
:101D700000F0AB8301229A4012F04E0F7FF490A83E
:101D800012F0300F40F0FE83002B40F09E8396F857
:101D9000423196F841219342C0F0928596F84191E4
:101DA000A3EB09095FFA89F9D6F8300108F0FCFCC9
:101DB00000EB09039BB2FF2B00F2AC8596F83A21A9
:101DC0009A427FF46DA87E4808F0BCFC01460028CA
:101DD0003FF466A894F8FA20B4F8FE30B4F8020193
:101DE000A3854FF0010C60866CF302024FF0090CE2
:101DF00084F8FA200A7981F805C094F850E08B81C4
:101E000042F003024FF0140A4FF000090A711EF06D
:101E1000200F4FF01B0281F807A081F809900A7289
:101E200000F0A185D4F8982012F4106F00F09B8583
:101E300012F4006300F0AB856FF06F020A23C881D3
:101E40008A72CB72002220460BF0B6FFEAE4C9F397
:101E5000820262F3C50312F0040F84F83830E38D78
:101E600000F03E829B0103F574739BB2B3F5A47F2F
:101E7000C0F03082B4F832B05B4528BF5B464FF407
:101E800029629A4238BF1A461FFA82FB94F838300A
:101E9000FFF7A8B896F8411196F840315B1A134441
:101EA000DBB2FFF7D3B8D4F85431002B7FF430AF56
:101EB000D4F850310360C4E95400C4F858012FE746
:101EC000D4F85431002B7FF49FACD4F85031C9F8CA
:101ED0000030C4E95499C4F85891A0E496F841112F
:101EE00096F840315B1A1344DBB2FEF7B1BF04F53C
:101EF00086794B46324604F17A0104F1C00011F0B4
:101F0000C3FF4946102204F22D1017F02BFA04F2F9
:101F10002511082204F5A37017F024FA94F824116F
:101F200094F8452194F8663184F83D6166F3000128
:101F300042F0010243F0100384F82411C4E947661B
:101F400084F83E6184F83F6184F8406184F841611F
:101F500084F8426184F8436184F8446184F845213F
:101F600084F866310AF1040120460DF00BFFFFF7FB
:101F70000BBBC4F86001FFF781BB96F8411196F8DE
:101F800040315B1A1344DBB2FFF7C8B80AFB1133C8
:101F900040F2E2429BB20B4802FB03F383FB0001D9
:101FA00005A3D3E90023FEF7FBF83B1A0C93FFF7D8
:101FB000E4B900BFAFF300808D49FD1A07000000AF
:101FC0002421002000CA9A3B94F8092194F8083192
:101FD0009A423EF46BAF05200DF09EFB94F80A3157
:101FE00003F00302032A00F2EB8401A151F822F06E
:101FF00099200000A10E0000A10E000001200000A9
:1020000094F8752094F8741091427EF4E7AE94F839
:10201000081184F80911C3F38201880740F16A842A
:10202000022161F3840384F80A3194F80A315909D2
:10203000880740F15684022161F3471384F80A317E
:1020400094F80A3194F838E094F83AC094F878108B
:10205000C3F38200CEF3C20E864508BF00200CF009
:10206000070C5B0960F384019C4508BF002363F300
:10207000471194F80B01CBB243F00103C0F34001C8
:1020800061F34103013A062184F8752084F8783021
:1020900084F87610FEF704BFCF4808F053FB0146E2
:1020A00000283EF4FDAE94F80AE194F8399094F8D3
:1020B000382094F80B01012363F3010E5FFA8EF3CD
:1020C000C3F3421C6CF3C509C3F3820384F839904F
:1020D000C0F3000063F3020260F38612087984F80B
:1020E0000AE184F8382040F003004FF0030E162276
:1020F00081F809C00B72087181F805E0CA71A1E688
:1021000096F8411196F840315B1A1344DBB2FFF7A1
:10211000A8B8B24815E5C4F860A1FFF75CBA0D2372
:102120008AF808608AF807304FF00209FFF727BAEB
:1021300094F8501096F82031A94AAA4832F8133082
:10214000C1F3820132F811C0E16D626D634405FB99
:1021500003F303F5742303F23F23A0FB03380A9B28
:102160000D984FEA984808FB00F002FB131369082A
:10217000034496398B4228BF0B4694F88820C4F854
:102180005480C4E91613984B07FB02F24FF0000C81
:10219000A0FB03016266C4F870C08DA3D3E90023DD
:1021A000FDF7FEFF914B9049A3FB0B230C9A9B0A72
:1021B000121A07FB03F70C92A7FB010184A3D3E9D2
:1021C0000023FDF7EDFF20F07F43A5EB08080A93FD
:1021D000FFF7F7B8E38C2B4406339BB2A4F87A30B0
:1021E00071E50868002800F09381D1F804C0C3F8B5
:1021F0000490DCF800C018600A60CCF80090FEF78C
:1022000077BF754808F09EFA00283EF449AE94F86E
:102210009D3094F89E20013B84F89D30037942F074
:102220000102062184F89E20417194F8662143F052
:1022300003030A21037101726FF00E0305214FF0B1
:102240000C0C437281724FF0FF33110680F807C007
:10225000C372037300F14F81D4F85031002B00F0AA
:102260004A81120700F14781D4F85C21934204BFF0
:102270001A68C4F85C21D4F85421002A00F0438382
:10228000D4F858311A6802601860C4F8580103681D
:10229000002B7FF4C7AAC4F86001FFF7C3BA0E325F
:1022A000D2004FEA6C0C22FA0CF292B2B2F5A47F83
:1022B0004FF4A47AFEF4B0AEB2F5296F28BF4FF404
:1022C00029622AFA0CFA524538BF52461FFA82FA9E
:1022D000FEF7A2BE4FF4A47B94F83830FEF782BE1E
:1022E0000E33DB005210D3409BB2B3F5A47FF1D381
:1022F000B4F832B04FF4A47C5B4528BF5B462CFA9F
:1023000002F2BEE5B4F87C300B931A46E38C9A4295
:102310007EF49CAF40F2E243B4F87E00E28F0F906F
:1023200003FB0AF142F2107303FB0013013B93FB22
:10233000F1F39BB29A427EF489AFFEF7ECBF1068CE
:10234000002800F0FA805668C3F8049036681860D8
:102350001160C6F80090FEF73ABF01221146002036
:1023600008F090FAFFF7BDB82148FFF7EABB41F645
:102370008141204803F0B8FB38E41068002800F0E1
:10238000F380D2F804C0C3F80480DCF800C0186001
:10239000B4F87C300B93B4F87E3094F87890B4F8AD
:1023A0007AA011600F93CCF80080FEF7B4BF96F8C6
:1023B000411196F840315B1A1344DBB2FFF7B9B90B
:1023C00042F2A6510B4803F08FFBFEF77EBE00BF22
:1023D0008D49FD1A0700000024210020B9070000E4
:1023E000D8AC010083DE1B4300CA9A3B5917B7D112
:1023F00085E8000008AD010004F586794B463246B9
:1024000004F17A0104F1C00011F03EFD49461022AA
:1024100004F22D1016F0A6FF082204F2251104F58F
:10242000A37016F09FFF94F8241194F8450194F8D6
:1024300066219AF8043084F83D61C4E9476684F85F
:102440003E6184F83F6184F8406184F8416184F81A
:10245000426184F8436184F8446166F3000041F00E
:10246000010142F0100243F003034FF0010C052676
:1024700084F8241184F8450184F866218AF8043030
:102480008AF805C08AF80760FFF77EB841F6217127
:10249000D84803F029FBFEF703BDC4F86091FFF7AD
:1024A000C1B994F83A3003F007038B427EF4C3AD10
:1024B000FEF7FCBC42F2A651CE4803F015FBFEF736
:1024C00073BE11461346FFF7FEBB42F26D11C948B9
:1024D00003F00AFBFEF7E4BC42F2A651C54803F044
:1024E00003FBFEF7FBBEB2F5296F28BF4FF429624C
:1024F0004FF4296AE7E6D4F85431002B7FF4C0AEDC
:10250000D4F850310360C4E95400C4F85801BFE660
:10251000C3E90099FEF7ECBD1A6802601860036811
:10252000C4E95500FFF7A7B896F8411196F8403175
:102530005B1A1344DBB2FFF79FBBC3E90099FEF7B8
:1025400046BE1368336016603368C4E95566FFF70A
:10255000DABA1368CAF80030C2F800A0DAF800301E
:10256000C4E955AAFFF734B8C3E90088B4F87C3051
:102570000B93B4F87E3094F87890B4F87AA00F9367
:10258000FEF7C9BE96F8423196F841219342C0F059
:102590001E8196F84191A3EB09095FFA89F9D6F8F3
:1025A000300108F001F900EB09039BB2FF2B00F2A8
:1025B000BB8096F83A219A4240F0BB8094F867219C
:1025C00094F8FA30B4F8FC1021866FF3820284F894
:1025D000672103F00701B4F8FE20B4F800010A9265
:1025E0000429B4F80221E0860B9200F0188106223B
:1025F00062F3020384F8FA30D6F80C0108F0D4F83C
:10260000D6F8CC300BB1013080B2D6F800310BB126
:10261000013080B2238E96F810210E33013023F062
:10262000030390421FFA83F903D0B6F838314B45C3
:1026300046D296F8423196F84121934223D0DFF8F2
:10264000C0A1DFF8B0B1002B6BD196F84031013B4F
:10265000DBB2D6F83C2186F8423152F8233051469D
:10266000186808F089F896F8403196F85421013B33
:102670009A4262DA96F8423196F8411101328B4261
:1026800086F85421DFD1228EB6F83631292A98BF38
:102690004FF03409B3FBF9F3DBB2A6F8389186F8B2
:1026A0003A31002B00F01781D6F82C01524B96F8E6
:1026B0003A21B6F8381108F017F804200BF0E4FBC3
:1026C00096F8422196F841319A42C0F08A8096F8F5
:1026D0004131D31ADBB2012B40F28C8196F84121B3
:1026E000D6F83C3153F82230002B00F083811A7A5F
:1026F000218CD98042F00302092159721A72228E6C
:10270000E08E9A810A9A1A8202214FF0150C0B9AD8
:10271000D8815A82197183F80BC00DF0B1F9FEF718
:10272000BFBB013BDBB294E742F2C201314803F088
:10273000DBF900233374FEF713BC42F22211584632
:1027400003F0D2F996F8542194E7D4F85431002BD1
:102750007FF409A9D4F850310360C4E95400C4F8E7
:102760005801FFF707B91A68C9F80020C3F80090AC
:10277000D9F80030C4E95599FFF751B81A680260DA
:1027800018600368C4E95500FFF7CABA1B4807F090
:10279000D9FF014600283EF483AB037943F00303DD
:1027A0000B71112003220F23C8714A710B7294F828
:1027B000D3304B72002220460BF0FEFA94F8D03052
:1027C00084F8D1300023C6F88831FEF769BB96F84B
:1027D000412196F84091A9EB020999445FFA89F9E1
:1027E000DDE696F8411196F840315B1A1344DBB2EE
:1027F00071E700BF08AD0100F8200020242100206F
:102800001021002096F8411196F840315B1A1344CC
:10281000DBB2FFF725B8C4F86001FFF7AFB8B4F832
:102820000421002A7DD194F8F830A4F8442084F8DB
:10283000F930E1E6714807F085FF014600283EF4D3
:102840002FAB0379182243F0030303714271B4F8EC
:10285000D420B4F8D630B4F8D8000A81B4F8DA201D
:102860004B8110238881CA81CB7194F8DC300B74C2
:10287000B4F8DE30B4F8E000B4F8E220A1F811308A
:10288000B4F8E430A1F81300B4F8E600A1F815207C
:10289000B4F8E820A1F81730B4F8EA30A1F81D30F8
:1028A000A1F81900A1F81B2020464A460BF084FA33
:1028B00094F8D03084F8D130C6F88891FEF7F0BA99
:1028C00096F8412196F84091A9EB020999445FFAE4
:1028D00089F9FFF769BA42F23911494803F004F95E
:1028E000E2E6C80735D5012161F3471384F80A31C0
:1028F000FFF7A6BBC80722D5012161F3840384F842
:102900000A31FFF792BB1A68026018600368C4E9D5
:102910005500BDE442F25A01394803F0E5F8FEF7EC
:10292000BFBA002161F30203A4F8FE20B4F8062127
:1029300084F8FA30A4F80411A4F802215CE611F03E
:10294000040118BF042161F3840384F80A31FFF7FE
:102950006CBB11F0040118BF042161F3471384F824
:102960000A31FFF76DBB0E33DB004822CB81012318
:102970008A72CB72FFF766BAB4F8D630FFF756B852
:102980001A6802601860C4E95500FEF7F3BFD2056B
:102990007FF558AAA4286FF05B02CB728A7286BFBB
:1029A0008A73CB73C881FFF74DBA42F28B2114486A
:1029B00003F09AF80023DB80FFDE41F60971F6E7A9
:1029C00042F2DA110E4803F08FF8FEF769BA42F2CC
:1029D0006B21ECE741F6F041E9E742F2FE11E6E750
:1029E00042F22A01064803F07FF8FEF759BA41F691
:1029F0009461DCE742F24911D9E700BF24210020AD
:102A000008AD0100000000002DE9F04F99B011F071
:102A10000DFD10F0FF0FAE4C77D111F0F1FC11F06D
:102A2000BFFD11F0A5FD11F0ADFF11F069FD667D50
:102A3000052E02F28C80DFE816F0490046015700AF
:102A40004C004C004C00B8F1000F40F0E686002D21
:102A500040F04687FF277BB394F8E1309B0740F1B5
:102A60000087B8F1000F01F03C8394F84111D4F8CD
:102A70003C21D4F8003152F821605BB194F88231E6
:102A8000002B01F0B08094F8803194F881219A42B3
:102A900001F0A980307A10F00F0301F07A80062B44
:102AA00001F07780022B01F0E283012B41F05E857B
:102AB000737A0C2B01F03C850323637511F088FCBD
:102AC00094F8E0306FF3410384F8E03019B0BDE8CA
:102AD000F08F237D042B02F24180DFE813F0020522
:102AE000FF03C003440444040123637511F05AFE3C
:102AF0000546962011F064FD237D013B032B02F275
:102B00003480DFE803F0BC93494911F0AFFC07467D
:102B100011F036FD804611F03DFD834611F03EFF79
:102B2000054611F029FF824611F0F2FC814611F0B2
:102B300067FC11F035FD11F01BFD11F023FF11F0C2
:102B4000DFFC667D052E02F2028001A353F826F019
:102B5000CD2A0000692B0000E92A0000D32A0000DA
:102B6000D32A0000D32A0000227D013AFBB25FFA8B
:102B700088F8EDB25FFA8AF05FFA89F9032A01F268
:102B8000DF8701A151F822F0E52D0000472A00005F
:102B9000D52C0000D52C0000D4F8143193F838203F
:102BA00093F83A000021D30900F00700C2F3C202F3
:102BB00011F07CFC94F84121D4F83C31D4F8140194
:102BC00053F8221008310BF0D1FA11F025FC00283F
:102BD00040F0B084D4F8143193F83A00012100F0A9
:102BE000070011F0DBFBD4F8142192F83A3003F01F
:102BF0000703A335022B054400F08884042B0CBF87
:102C00004FF4BC73282392F83800C109C0F3C20006
:102C10001D4411F0BFFB281A11F07CFD237D042B0D
:102C200000F06B8401200BF0F9FA4FE700231A46FD
:102C30001946184611F03AFC94F84121D4F83C3179
:102C400053F82200083011F08FFB11F0E5FB00284B
:102C500040F0698410F062FA002840F07984002185
:102C6000084611F09BFBCB3500210544084611F0C6
:102C700091FB281A11F04EFD11F032FC26E70023DB
:102C80001A461946184611F011FC11F0FDFB11F01F
:102C90006BFB11F0C1FB002840F0538410F03EFAAA
:102CA000002840F036840021084611F077FBCB3530
:102CB00000210544084611F06DFB281A11F02AFD89
:102CC00011F062FD02E70323637511F081FBFDE65D
:102CD000C81F002094F8182194F84101D4F83C1141
:102CE000D4F814510132002784F818218DF843706C
:102CF00051F82080022288F80420002B40F008853B
:102D000094F819310BB1013BDEB284F81961B5F8C2
:102D1000403013B9EB8FA5F8403095F8663128465E
:102D200011A9DD090BF0B4FB637D032B00F0708566
:102D3000002E40F02D86032337466375237D042B38
:102D400000F0158711F0BEFBD4F81401119990F82A
:102D500066510B782A46C5F30005C2F3400265F3BD
:102D6000C30362F382030B700BF094FC11F054FB6D
:102D7000002840F06F8511F0FBFC002800F0C284B1
:102D8000D4F81431002B3FF4A1AE002F00F05C8486
:102D900094F84111D4F83C2152F8212012681168AE
:102DA000002900F0188400230C4EDFF834A0C2E99B
:102DB000003303E02946002D00F00B84086894F8E6
:102DC000783105680B70324607F01CFD0028F1D100
:102DD00042F29E51504602F087FEEBE71821002098
:102DE00008AD0100002B3FF46EAF002D40F0BE8512
:102DF000FF208DF8440011F047FB0646007894F858
:102E0000791027272B2200F00F0317FB0127032B34
:102E100004EB070900F07685052B7FF454AF737837
:102E2000222B7FF450AFE35D03F00F03012B01F081
:102E30006F8394F82930C3F3C103990740F1B2833B
:102E4000B8F1000F01F0B883E05D3278C0F3801371
:102E5000B3EBD21F01F0CF83002000283FF433AF43
:102E600094F8823133B194F8803194F881219A42F8
:102E70007FF429AFD4F8CC30002B3FF424AF94F882
:102E8000422194F841319A42C1F0AC8394F8413127
:102E9000D31ADBB2032B7FF616AF94F84121D4F896
:102EA0003C3153F82290B9F1000F3FF40CAF4FF0D2
:102EB000040A84F815A011F08BFAD4F8CC80D4F869
:102EC000081100234FF4B6724046C4F8CC3007F026
:102ED00075FC08F11003A8F82000032206F1120186
:102EE00008F114000B9308F1170B16F03BFA524649
:102EF00006F10E010B9816F035FA052206F11E01B7
:102F0000584616F02FFA0521584607F0DFFD96F8CF
:102F1000232098F81D10C2F3040260F3050188F81D
:102F20001D1088F81E20B6F818C0A8F824C0F27E3C
:102F3000B07E0B9940EA0220A8F82600524608F11C
:102F40006C0040F2E24A0AFB0CFA16F00BFAB18B65
:102F5000D74AB8F82630D74842F2107C0CFB01A1C2
:102F6000524403F1060CB2FBFAF21FFA82FEE64568
:102F700001F1FF315044B1FBFAF1B0FBFAF0A8F8CF
:102F80003E10A8F84200A8F84AE004DDAEEB0303C7
:102F9000063B1FFA83FE4FF480733146B8F82020B9
:102FA000A8F846E0A9F8083011F8083BA9F806206F
:102FB000C3F3C013082289F8173089F8042009F1F7
:102FC0001800062216F0CEF909F10B020B9209F156
:102FD000110306F1020B002D01F0B9839DF84400A6
:102FE000FF2801F0B48309F10A010B9310F004F8F3
:102FF00099F80A200B9B023289F80A205946184694
:10300000062216F0AFF9717E327E96F8233042EA3E
:103010000122A9F81E20F17EB27E42EA0122A9F81F
:103020002020327F717FC3F3421342EA0122A9F8C4
:10303000222089F8243094F8803194F881219A4232
:1030400003D1B8F820000BF049FC0CF019FD94F8FE
:10305000422194F841319A42C1F0FE8394F8413103
:10306000D31ADBB2022B41F2658594F84121D4F8E2
:103070003C3153F82220002A01F05C853378B8F8FF
:103080002010D18013F020034FF00D01117101F0D9
:10309000E08398F811C098F8103098F8135098F819
:1030A000120098F81D1040EA052043EA0C23434023
:1030B00041F040010120A8F81E3088F81D10107260
:1030C0000CF0DEFC96F8233098F85050707D7A4969
:1030D0007A4A5B0963F3840588F8505094F820C15C
:1030E00031F8135031F81C302B440AFB03F340F243
:1030F000E2494FEA5A01002509FB00F0963903F531
:103100007423C8F8680003F23F23C8F86450B3FB87
:10311000F2F32846C8E91531294611F03DF9684B0C
:10312000834600F25240A0FB03015FA3D3E90023D2
:10313000FDF736F8D4F88431D8F85420C8F8085090
:1031400027218B4220F07F40C8E90013C8F80C000B
:1031500038BF0B46AAEB020A0B9311F01DFB0C9033
:10316000F68A2946284611F015F909FB06990C9BA9
:10317000A9F130094B441B1A01212846A3EB0B0B84
:1031800011F034FC2A4601218146284607F07AFBDB
:1031900040F2C1432946009305224A4B284608F0D5
:1031A00025FB40F2C2410BF0CDFBE35D03F00F03C2
:1031B000012B01F05A834249AAFB01673AA3D3E9E4
:1031C000002330463946FCF7EBFF3F4AD4F808A00D
:1031D000DFF804C10B9D20F07F44A4FB02230721EC
:1031E000B01A01FB043398F82060CDE9068C67EB38
:1031F000030140F2D94E354BCDF820E00593D8F8C5
:103200000C30002705EB030C4FF47A720023CDE954
:10321000037CFCF7C5FF2A49029023A3D3E90023CE
:10322000ABFB01010194FCF7BBFF073620F07F40A8
:10323000AAEB0508F6B200904346324639463846B6
:1032400008F02CFA30F0020304D040F2DB412048B1
:1032500002F04AFCB9F1000F3FF438AC1CE0032E39
:1032600000F02F8211F07AF9637D052B00F09D8329
:10327000002525756575657411F038FA2A462946CA
:103280002846144B07F032FB002840F09C81206850
:10329000436800215B68984701221146002007F02F
:1032A000F1FA19B0BDE8F08F8D49FD1A0700000052
:1032B0007FC3C901FF596202D8AC010040420F0030
:1032C00000CA9A3B45E900008D49FD1AC1FF000084
:1032D00008AD0100A018012031E90000032E04D13F
:1032E00094F828305F0740F0398311F037F9637D97
:1032F000032BBDD194F8283013F04003B8D1606897
:103300004268556815B1022211A9A847BDF84420AA
:10331000C94BCA490591A3FB0213D51A03EB550506
:103320002D0A40F2471303FB1525013500212DB26C
:1033300041F22B122B460692CDE90311CDE9011182
:10334000009108460522ADF8445008F0FDF930F030
:1033500002038DD0A37C052B8AD041F22F11B848EF
:1033600002F0C2FB84E7D4F81451002D80D095F808
:10337000A71041B1237D032B00F0B98295F850309E
:10338000DE0700F1B482B5F82A9094F8187109F1BB
:103390000106B6B2002F00F04D82237D032B00F012
:1033A0003C86002900F0098395F85030002743F04F
:1033B000010385F85030B8460023AB87B5F840309C
:1033C000002B40F0D1809A46B5F844302BB19E4294
:1033D00080F075869B1BA5F84430B5F84C302BB1B6
:1033E0009E4280F016839B1BA5F84C30D4F81451F4
:1033F000B5F8483095F86A212BB19E4280F0F682EC
:103400009B1BA5F848301ABB94F8422194F841312F
:103410009A42C0F0218394F84131D31ADBB2012BD8
:1034200014D994F84121D4F83C3153F822306BB1CF
:103430000A2195F8682185F86A11288C85F8692198
:103440000F21DA72D88019710CF01AFBD4F81451DC
:1034500095F8752095F874309A4205D095F8763035
:10346000013B012B40F299826B8DBAF1000F02D122
:10347000994500F0B38301339EB295F867319907FF
:1034800000F1018257EA080304D11EB9BAF1000F16
:103490003FF4EEAE00200246D4F81431DFF8A4C1A8
:1034A00093F82050CDF810A00735EDB200213B462F
:1034B000CDE90206CDE9008206952A46CDF814C072
:1034C000084608F041F930F002033FF4D1AEA37C86
:1034D0009D423FF4CDAE41F2E421594802F004FB95
:1034E000C6E6043E012E04D941F20B31544802F0E5
:1034F000FBFA00236375FFF7E9BA94F81831002B43
:103500007FF490AB10F0ECFFFFF78CBB1823FFF7B4
:103510007ABB11A80FF04EFB01469DF8440011F054
:10352000F7F9FFF7C0BB40F2E721454802F0DCFAAB
:10353000FFF790BB40F20F31414802F0D5FAFFF798
:1035400049BB4FF430713E4802F0CEFAFFF7A6BBFC
:1035500011A80FF02FFB01469DF8440011F0D8F997
:10356000FFF77DBB88460F469E4280F09D859B1BE2
:103570009AB2062A4FF00003A5F840206B8540F26E
:103580000982227D032A7FF41EAFB9F1000F40F0BB
:103590000182EB6E5A0813F0010A18BF42F0004294
:1035A000EA6611E7C0F3801011AAB11C0FF052FDBA
:1035B00000287FF449AC94F82930C3F3C1039A077B
:1035C0003FF53EAC48E441F231411D4802F08CFA2F
:1035D0005DE6D4F81431188C39460AF0F3FD9DF8F5
:1035E00043306BB194F8803194F88121D4F81411F0
:1035F0009A42088C00F08187A8F806000CF040FA87
:10360000B9F1000F3FF462AA10F074FFD4F814214E
:1036100092F86931C0B21B1ADBB2042B82F8680140
:1036200040F2BE8192F86A31002B3FF44FAA013B71
:1036300082F86A31FFF74ABA21F1D490B5E9000067
:1036400008AD0100D5E900009DF84320A2B194F82F
:10365000802194F88111188C914240F033850BF051
:103660003DF9D4F814311B8CA8F806300CF008FA98
:103670009DF84330002BC3D194F84121D4F83C315C
:1036800053F822301B681968002900F0A982002233
:10369000D34ED44FC3E9002203E02946002D00F0A9
:1036A0009F82086894F8783105680B70324607F0FD
:1036B000A9F80028F1D142F29E51384602F014FADE
:1036C000EBE7962010F07CFF002319461A461846B7
:1036D00010F0ECFE94F84121D4F83C3153F822006C
:1036E000083010F041FE10F0FBFE0FF017FD00282F
:1036F00040F0BA810123637510F05EFE11F044F8CA
:10370000FFF7E4B911F028F811F02CF8FFF738BBF7
:1037100095F8663198F8082003F00101C2F38000A3
:10372000884240D0207D81F0010161F3000303282D
:1037300085F8663105D195F8503043F0010385F8DE
:10374000503095F86631190600F11D82D5F8507198
:1037500095F86521381D00EB020B9BF801A0BAF12A
:10376000000F13D09B060AD5D5F83D31D5F841118D
:10377000013341F10001C5F83D31C5F841119BF815
:10378000003003F00303032B00F0CA850AEB0203A9
:1037900095F86421DBB29A4285F8653100F0FD842A
:1037A00098F80820002795F86611C2F3C003C1F30A
:1037B0004000834200F06181002295F8663184F870
:1037C00019212846A5F8402011A9DD090AF060FE5C
:1037D000637D032B1DD098F80830DB0602D4119BC3
:1037E0005B78B3B1D4F8143193F8A7308BB90223C6
:1037F0009620637510F0E4FED4F8143193F83A0083
:1038000000F0070010F044FE10F0BEFFFFF79CBA76
:10381000002703236375FFF791BA94F8E1000B9337
:103820005FFA8BF1C0F340000FF0CEF90B9B074617
:10383000FFF711B9A98F002900F09C808E4280F01B
:103840006E84B5F84030891BA987B846002B3FF439
:10385000BAAD89E640F69871624802F045F9FFF783
:103860008ABAB8F1000F3FF400A9394628460FF094
:103870009DFB00287FF4F9A894F8E13099077FF5C3
:103880001BA9FFF7F2B895F91D206FF34103002A39
:1038900085F86731C0F2638195F83800C109C0F33B
:1038A000C20010F06DFD95F86721AB8E4E495207AE
:1038B0004CBFB5F80021EA8E03F5E37303441344CB
:1038C000A3FB010144A3D3E90023FCF769FCEA68E8
:1038D00020F07F43934273D99A1AEB600020DBE516
:1038E0000B930FF0A9F90B9B0746FFF7B4B82846D6
:1038F0000CF09EF9D4F814010AF014FD0023C4F86A
:103900001431B5E473780C2B7FF4DDA9E35D03F08B
:103910000F03012B3FF4D7A994F829301A070FD5CC
:10392000B8F1000F00F07B86E35D3078C3F38013BD
:10393000B3EBD01F00F0D38600F00F03FFF76CBA93
:10394000C0F3801011AAB11C0FF084FB0028EBD14A
:1039500094F829301B07E3D43078EDE70AF0FAFE3B
:1039600010F030FD10F010FFFFF7B0B80FF064F961
:10397000FFF73FBAB5F84030002B7FF4F3ADEB8F83
:10398000A5F840300F468846002B3FF41CADEBE510
:10399000002727E74FF0010A16E500236B8564E551
:1039A0000A2382F86A31FFF791B800230093194681
:1039B0001846042207F01AFF5AE40F468846FBE433
:1039C000D01A47EA0802EB6052EA000318BF00224F
:1039D0007FF462AD59E500BF8D49FD1A0700000074
:1039E0001821002008AD010000CA9A3BB5F8443008
:1039F0000021A5F84810002B7FF405AD95F875104F
:103A000095F874308B4200F0EA83002A7FF426ADEB
:103A1000FAE40023A5F84C3094F8422194F841319F
:103A20009A42C0F0448394F84131D31ADBB2012B9F
:103A300041F2838094F84121D4F83C3153F822308C
:103A4000002B01F07A80D4F81421128CDA800C2239
:103A50001A710CF015F8C9E494F8411194F840314A
:103A60005B1A1344DBB2DAE411A80FF0A3F80146A5
:103A70009DF8440010F04CFF3CE694F842C194F8E5
:103A800041319C45C0F0248394F84131ACEB0303F1
:103A9000DBB2022B7FF690AE94F841C1D4F83C31F2
:103AA00053F82C30002B3FF487AE94F8823153B397
:103AB000D4F84C31D4F850C1634500F08584D4F873
:103AC00050C163453FF478AE94F8803194F881C1D9
:103AD0009C453FF471AE94F8803123B9B4F87EC1AF
:103AE0002B8C9C450FD094F88031002B3FF464AEB2
:103AF00094F88031B5F820C004EB4303B3F8783173
:103B000063457FF459AE98F80930002B00F06F83BD
:103B100011F0100A40F0B784D4F8140190F866113F
:103B20004B0740F1C38302F00303032B00F0A18392
:103B30000323637510F04CFC10F06EFC002840F07D
:103B400064863D21D4F814010CF072F8D4F8140105
:103B50000AF0E8FB0023C4F81431FFF70CB995F81C
:103B60003A00012100F0070010F016FC9BE6D4F8A3
:103B7000143193F8662165F3C71283F8662110F0BB
:103B800027FCFFF7F8B86FF3C71385F866310027F5
:103B900009E6737A252B3EF68FAF94F8E120D20721
:103BA00004D5D4F80021002A00F01784252B98BFF3
:103BB0004FF000083EF680AF002B3EF47DAFD4F806
:103BC0000031002B7EF478AF002D14BF3946FF2161
:103BD000424648460BF0ECFFFEF76EBF56464CE4FB
:103BE0000EF048FC0CE594F8E120C2F34003002BF2
:103BF00000F02C83307A10F00F0340F09C82737A2F
:103C0000252B3EF659AF10F0C7FDD4F8DC30E8495B
:103C10000722A3FB01AB02FB03BB00F21628E0A3C3
:103C2000D3E9002350465946FCF7BAFAA0F596703E
:103C30008045BEF42FAF94F8422194F841319A4266
:103C4000C0F0F68494F84131D31ADBB2032B7EF630
:103C500033AF94F84121D4F83C3153F822A0BAF1A3
:103C6000000F3EF429AF042200236275D4F80091BE
:103C7000C4F8003110F008FC037823F02F0343F060
:103C800025030370337A027822214170C3F3801137
:103C900061F3C712C3F340130270804638469B4657
:103CA0008DF83F300EF072FF94F8E13001465FFA74
:103CB0008BF298060D9240F1AF85002900F0AC859B
:103CC00098F80030C34643F040030BF8023B06224D
:103CD000584615F047FB08F10803184606F10A019B
:103CE00006220B9315F03EFB042209F1100108F1A6
:103CF0000E0015F037FB032209F1140108F1120040
:103D000015F030FBB4F8F430012288F8152040F2A9
:103D1000E24202FB03F30C9310F03EFDE368D4F89B
:103D20000461002BCCBF00F5DB6000F2BA60002E0E
:103D300040F0628188F8166088F817600646002116
:103D4000084610F01DFB00210E90084610F022FBE3
:103D50000E9BB4F8F610B4F8F8201E36F31AB4F837
:103D6000F460A8F818601B1AA8F81A10A8F81C200C
:103D700009F11701052208F11E000E9315F0F2FA61
:103D800099F81E2098F8233062F3040388F8233052
:103D900094F8202162F3471388F8233010F092FB47
:103DA000404610F0E7FA10F037FB002840F090840E
:103DB0004FF4B672D4F80811484606F0FFFC002311
:103DC000A9F82000AAF8083098F80030AAF80600F0
:103DD000C3F38013082259468AF804208AF8173062
:103DE00006220AF1180015F0BDFA0AF10B060AF1D5
:103DF000110B002D00F05A84FF2F00F0578432463B
:103E000038460AF10A010FF0F7F89AF80A300B99D0
:103E1000023358468AF80A30062215F0A3FA98F8B9
:103E20002330B4F8F420B4F8F610AAF81E20C3F337
:103E30004213B4F8F820AAF82220AAF820108AF831
:103E4000243094F8803194F881219A4203D1B9F852
:103E500020000AF043FD0BF013FE94F8422194F881
:103E600041319A42C0F0898494F84131D31ADBB2CF
:103E7000022B40F2578694F84121D4F83C3153F894
:103E80002230002B00F04E86B9F82020DA800D2277
:103E90001A710D9A002A00F06B8499F8116099F854
:103EA000102099F8135099F8120099F81D1040EA63
:103EB000052042EA0622424041F040010120A9F8D3
:103EC0001E2089F81D1018720BF0DAFDD4F88461F9
:103ED000D4F8FC30C9F80C30002527229642C9F8E6
:103EE0000460C9F80020C9F808504FF001012846C5
:103EF00038BF164610F07AFD2A4601218246284630
:103F000006F0C0FC4FF4D5630622294600932846EC
:103F1000284B294F07F06AFC40F2A9610AF02EFDF8
:103F20002B46294604220095284607F05FFC234AC9
:103F300099F82010224B0593CDE906924FF4D860F2
:103F400008900C98D9F80C20A3680395A0FB07896A
:103F500006EB020CCC1D9E1B4046494612A3D3E93A
:103F60000023CDF810C0FCF71BF9104619464FF49A
:103F70007A720023FCF714F90BA3D3E90023029013
:103F800049464046FCF70CF90E99019006A3D3E987
:103F90000023A1FB0701FCF703F913E0AFF3008056
:103FA00000CA9A3B000000008D49FD1A070000007E
:103FB0008D49FD1A7DE9000000CA9A3B31E90000F5
:103FC000C5FF0000E4B220F07F4000903346224657
:103FD0002946284607F062FB30F0020304D040F285
:103FE000C261CB4801F080FDBAF1000F3EF46EAD26
:103FF000FFF752B90C9B1E44002EFBDB8642F9D31F
:1040000098F815200132331A40F2E24188F8152061
:10401000B3FBF1F3A8F8163091E610F0A9FB804647
:1040200010F0ACFBD4F8145195F83A30296E03F037
:104030000703022B0746A8EB000000F0CD80042BFD
:104040000CBF4FF4BC7A4FF0280A01F1300BD34477
:1040500058454ED8DFF8C4A2ABA3D3E90023A1FB97
:104060000A01FCF79DF8A7EB0801594420F07F47AF
:10407000A5A3D3E90023A1FB0A01FCF791F820F0E6
:104080007F48D5F8502100232B66AB66002A00F04C
:10409000D480537923B995F86531002B3FF48CA96E
:1040A00000236B85FFF788B92846082120E494F89F
:1040B000411194F840315B1A1344DBB2B7E428464F
:1040C000222115E4A8F806000BF0DAFCFFF7D0BABD
:1040D00094F841E194F84031A3EB0E036344DBB262
:1040E000D7E438460EF0DAFD00287EF4BEACFEF7C9
:1040F000E3BCDFF8288284A3D3E90023A0FB0801F6
:10410000FCF74EF80AF1300A20F07F477EA3D3E98E
:104110000023AAFB0801FCF743F88046B1E72846D4
:104120003E210BF085FDD4F814010AF0FBF8C4F829
:104130001471FFF79DB8012B7EF4B1AC737A0C2B90
:104140007EF4BAAC06F11008C00941463A460EF0BA
:10415000C1FF00287FF457AD94F8E1309A0600F1D2
:10416000F08394F8E130307AC3F30013B3EBD01F3F
:1041700000F0C38394F8E130C3F341039B077EF55D
:1041800089AC96F90830002BBEF684AC737D03F041
:10419000C003402B7EF47EAC35E54FF0000AD5E934
:1041A000543200219342A5F8641100F09780D5F8AD
:1041B0005C21934208BF1A681B6808BFC5F85C21E0
:1041C000C5F85031BAF1000F7FF4C0ACD4F81451E7
:1041D00098F80820FFF7E7BA4FF0180A35E7013BD7
:1041E000052185F8753085F87610FFF70CB911F0C8
:1041F000140F80F0010000F0E180EB8CB5F84A204C
:10420000991D8A42C4BFD31A063BB5F84610CCBFED
:104210009BB21346994200F0D881A5F8463095F834
:104220006631A5F84C2060F34103B5F8462085F8C7
:104230006631A5F84820FFF7BFBA95F85030D80787
:104240007FF5BAA8EB8C6B85FFF7B6B8FF2F00F0AF
:104250009E8094F8E230307AA3EB070CDCF1000387
:1042600043EB0C03002B7FF4C6ACFEF714BC737A4F
:104270009CE490F91D5098F80B30002D01F040019E
:10428000C0F22783002900F01D83991EC9B20929B5
:1042900000F21B8340F2052525FA01F1CE0705D473
:1042A0001C4921FA03F3DD077FF542ACC2F301029A
:1042B000002351B2A0F84830D2B2A0F84C30002907
:1042C00050D0022A4BD90DF1430140460BF07CFE41
:1042D000002847D0D4F81451FFF76EBA002F3FF4EE
:1042E00071AFD5F858211868C5F8500193420CBF3A
:1042F000C5E95511C5F854010749384606F03CFA9E
:1043000000275FE7AFF300808D49FD1A070000002A
:1043100008AD0100602002002421002000CA9A3B61
:104320009BF80330023B162B00F28B83DFE813F07F
:104330009803A6023E02890389038903890389033E
:1043400077034C03890333028903890389032E020F
:10435000890389034303160389019001B8030123EC
:104360008DF84330D4F8145195F8663183F0020388
:1043700085F86631BAF1000F3FF41EAAD5E947323D
:10438000013342F10002C5E94732FFF715BA307A2E
:10439000C2F3C002C0F380118A427FF463AF0622E9
:1043A00006F10A01DF4814F0B6FFB0FA80F35B09AA
:1043B000307A002B7FF41FACFEF76DBB60F3410138
:1043C00085F86611FFF7F8B994F880C194F881E197
:1043D000E6457FF474ABFFF796BB002D14BF39465A
:1043E000FF21484600220BF0E3FB00287EF464AB7B
:1043F00010F04AF80378032262F303030370337A60
:1044000002780546C3F3801363F3C7120C232A70A6
:104410006B7038460EF0BAFB94F8E1309A0601460C
:1044200040F13581002800F032812A78284642F098
:10443000400200F8022B062214F094FF06F10A0154
:10444000062205F1080014F08DFF94F8E0300222F6
:104450001343962084F8E030627510F0B1F8002024
:1044600010F016F828460FF085FF10F08DF90FF0C8
:10447000D3FF00283EF42AAB40F20F71AA4801F0A6
:1044800033FBFEF723BB10F017FA002800F0DB81A6
:1044900010F034FA8246002840F0D081D4F814316C
:1044A00093F866315A077FF543AB98F8083003F06C
:1044B0000303032B7FF43CAB0FF0E6FF9B4E90F819
:1044C00003E090F801B084460FCE11AD0FC596E819
:1044D000070003C518AB9E442A801EF81C3C9B4570
:1044E0007FF426AB0BF10302614608F1080014F0DB
:1044F00039FF98F80820FFF70FBB0AF0EFF9D4F85E
:1045000014311B8CA8F806300BF0BAFAFFF778B814
:1045100006F10208C0F38010414611AA0EF09AFD80
:10452000002840F04B81002000F00100FEF795BC10
:1045300006F1100AC00951463A460EF0CBFD8046FE
:10454000A8BB94F8E130307AC3F30013B3EBD01F6B
:1045500000F0B28294F8E130C3F341039B0704D525
:1045600096F90830002BC0F2B282307A00F00F00CA
:1045700004287EF4A1AA737A252B3EF69DAA94F80E
:10458000E03098077EF598AA0FF07EFF337A027824
:10459000C3F38013B3EBD21F7EF48EAA0830062239
:1045A00006F10A0114F0B7FE00287EF485AA737A9A
:1045B0004FF00008FFF700BB9DF844000EF06EFBC3
:1045C00000287EF441ACFEF747BCB5F84C30002B18
:1045D0003FF425AE95F8663160F3410385F8663106
:1045E000FFF7EAB894F8411194F840315B1A13448C
:1045F000DBB2FEF74FBC00F00F08B8F1010F09F174
:10460000020906F1080A00F0978051464846062242
:1046100014F081FEB0FA80F04009FEF71EBC9DF850
:1046200044000EF03BFB00287FF47EA9FFF794B90D
:1046300094F8411194F840315B1A1344DBB2FFF750
:1046400005BB95F80A31022161F3010385F80A31AF
:10465000237D032B7FF49AA835494FF00433CDE92D
:10466000111395F8383095F80A0195F83910C3F30D
:10467000C20343EA900303F0070318A8034413F8A6
:104680001C3C63F3020185F83910FFF77FB894F8FA
:10469000E1302A782749C3F30013284663F38612D2
:1046A00000F8022B062214F05DFEC7E658460622EB
:1046B000002114F081FE98F800300B99C3F3C01369
:1046C00030468AF80A30062214F04CFEFFF7A7BBEA
:1046D00040F22F61144801F007FAFFF769BB062288
:1046E00006F1080109F1020014F015FE00287FF41C
:1046F00033A9032363750FF0E5FE94F8C90027235F
:1047000003FB00407B300FF035FE0FF085FE0028E4
:104710003EF4DCA94FF47B71034801F0E5F9FEF7A4
:10472000D5B900BFB120002008AD0100C0A801002C
:1047300001010201AB20002006225146484614F038
:10474000EAFD00287FF461AF4046FEF786BB1846BD
:104750000622002114F030FE33780B98C3F3801347
:10476000594689F80A30062214F0FCFDFEF74BBCCE
:104770009DF83F201A72FFF7A7BB94F8411194F8F7
:1047800040315B1A1344DBB2FFF772BB9BF8043075
:10479000032B7EF4FBAF95F86631002123F00C0368
:1047A00085F86631A5F84410FEF7F0BF95F866313C
:1047B00043F0080385F86631FEF7E8BFE35D317822
:1047C000C3F38012B2EBD11F7FF4ADAE03F00F0341
:1047D000012B09F1020B06F1080A00F0A9805146ED
:1047E0005846062214F097FD00287FF49CAE9DF8F1
:1047F0004430FF2B00F08A8094F82A00A0EB030CD1
:10480000DCF1000040EB0C008EE640F6A761DA48D0
:1048100001F06AF9FFF795B994F8E13098F80020B3
:10482000D649C346C3F3001363F386120BF8022B79
:104830000622584614F096FDFFF74DBA98F8082066
:10484000B246FFF769B940F67E61CB4801F04CF9FA
:104850001EE61372FEF734BC94F8411194F840310F
:104860005B1A1344DBB2FEF7FDBB00952B46032217
:104870002946284606F0BAFFFEF79DBC05F17A00EE
:1048800008220BF10E0114F06DFDD4F814010BF1A8
:104890001601042200F2251014F064FDD4F814511E
:1048A00095F8663195F8B420B5F8421085F8B52032
:1048B00043F00803A5F8441085F8663195F86521A2
:1048C000FEF764BF022B3FF4F1AC112B3FF630A989
:1048D000E6E400293CD0991E01297FF6E7AC0B2BBA
:1048E0003FF4E4AC112B3FF623A9A54921FA03F3C9
:1048F000D9073FF5DBACFFF71BB9414606229F48BD
:1049000014F009FD00283FF47EA933E43378E25D1A
:10491000C3F38013B3EBD21F7FF405AE414609F118
:104920000800062214F0F7FCB0FA80F04009FBE51D
:1049300006225146584614F0EEFC00283FF457AFCB
:104940004DE738460EF022F900287EF4A3A808E4CB
:10495000072B3FF4ABAC022BC4D1A7E495F8F800C9
:1049600095F8F93083423EF411AF95F8FA3003F030
:10497000070CBCF1070F3EF409AF012101FA0CF15D
:1049800011F0680F3EF402AFB5F8FE10E98503F0B0
:104990000701B5F802C1A5F834C0052900F0BB80B5
:1049A000B5F80411002940F0A78085F8F900A5F8B2
:1049B0004410FEF7EBBE95F8FA30022161F30203D2
:1049C00085F8FA30FEF7E2BE237D042B7FF4EEAECD
:1049D0003B79172143F0030303223B717971FA718C
:1049E00005F1B8010822043014F0BCFC606895F8A9
:1049F000B62043683A74D3F804B095F8B7307B74A6
:104A000007F11201BBF1000F02D000230C22D8479E
:104A1000D4F81451002795F86521FEF7B7BE95F834
:104A20006631B5F84210A5F8441023F0480343F06E
:104A3000480395F8B41085F8663185F8B510FEF78F
:104A4000A5BE02EB0A0395F86421DBB29A4285F811
:104A500065313FF4A2AB98F808200027FEF7A3BE0B
:104A6000032363750FF0B4FC0FF0D6FC00283DD192
:104A70009BF80410D4F81401132908BF16210BF079
:104A8000D7F8D4F8145195F8653195F8642153445A
:104A9000DBB29A4285F8653124D00027FFF756B87B
:104AA00095F8783095F83910C3F3820363F3020167
:104AB00085F83910FEF76ABE514606222F4814F0D9
:104AC0002AFC00287FF446AD737AFFF775B8737D32
:104AD00003F0C003402B7FF448AD737A4FF0010818
:104AE000FFF76AB84FF0010AFFF759BB4FF4EB61CB
:104AF000214800F0F9FFBBE7002060F30203A5F8AE
:104B0000FE10B5F8061185F8FA30A5F80401A5F8ED
:104B10000211FEF73BBE042161F3020385F8FA306F
:104B2000FEF734BE40F27461134800F0DDFF00234D
:104B3000DB80FFDE40F27141F6E741F25121F3E7FD
:104B400041F274010C4800F0CFFFFDF7BFBF41F206
:104B50007431094800F0C8FFFDF7B8BF41F21231C7
:104B6000054800F0C1FFFEF783BB40F24631024822
:104B700000F0BAFFFDF7AABF08AD0100AB2000208E
:104B800040200200000000002DE9F04FDFF8C8B31C
:104B900089B0DBF80051BDF848A01DB10C2009B068
:104BA000BDE8F08F80460BF5A4701E461746894677
:104BB00005F0C8FD0490002800F0B1810BF5867067
:104BC00005F0C0FD0446002800F0AB819BF8E13001
:104BD000494668F3C30306220BF1E9008BF8E13084
:104BE00014F0C0FB29462846ABF8F8A0ABF8F470E7
:104BF000ABF8F6600FF0C4FBCF4B00F25240A0FBC5
:104C00000301CBA3D3E90023FBF7CAFA4FF6FF72E7
:104C100020F07F40C94BCBF8FC004FF00309228401
:104C2000C4F898304FF0010A0594042107A808F051
:104C300059FFDDF81CE0002409F1FF395FFA89F91A
:104C40004FEADE71724603942746A4461E234FF0B6
:104C5000010801941DE00CF10101DDB20E2BC9B277
:104C6000029540F2B981002800F0448105463E4695
:104C70001C2B40F2EF811B2B40F27D81192930D093
:104C80000C2EA8468C4637462BD013F1FF3336D373
:104C9000014622FA03F000F001008842DBD108F15E
:104CA0000105072BEDB240F27881062D40F2D58147
:104CB0000AFA03F4002940F0178161463E46072BAB
:104CC00042EA040288BF012040F277818C4500F05F
:104CD00002810E2B40F2798101210C2E3746019181
:104CE000D3D1019C002C08BF724601330AFA03F3AA
:104CF000002800F008815B421A40079204E0019C02
:104D0000002C00F00481079282F00E4282F4090226
:104D100082F43E4282F0D602042106A8069205F0F3
:104D2000D5FE012808D9079B9AB2B2EB134F0DD1DB
:104D3000DAB2B2EB136F09D1B9F1000F7FF475AF9E
:104D400041F633117E4800F0CFFE6EE7059C0793D5
:104D5000042207A904F1100014F004FB032104F15C
:104D6000140008F0BFFE05227649774E04F11700C3
:104D700014F0F8FA9BF81F01617F94F8382094F83A
:104D8000393060F3050161770025BBF8F410A562A6
:104D9000BBF82601BBF824E1BBF82281A18460F3B3
:104DA0000202BBF8F60084F83820BBF828216663BD
:104DB00062F3C50384F83930A36B644E677F658462
:104DC00023F4E02222F4FF6240F2E24303FB01F10C
:104DD00042F4803343F48473BBF8F820A3630E4499
:104DE00042F21073B6FBF1FC4E1E03FB0262B2FBF3
:104DF000F1F2E2871B2294F85060E28522860622B7
:104E0000A4F832E0E2831FFA8CFEA287504BE084C4
:104E1000821807F03F0726F021069645A4F82C805B
:104E2000677784F850600B44A4F84050B3FBF1F36B
:104E3000A4F84AE0A4F84450A4F8423004DDAEEBF4
:104E4000000006381FFA80FE94F89E200499C4F8EA
:104E5000A810002322F0030284F89E20A4F84C300E
:104E6000A4F84830A4F87430A4F89430A4F89C3026
:104E7000A4F8A43084F8A730A4F846E035484B6085
:104E80000B60D4F8642194F8D2100078A4F8B43000
:104E900063F3041102F07F42A4F8D030A4F8F83094
:104EA000A4F80431A4F80831C4E95433C4E95633F2
:104EB000C4F8603184F86A3147F67F7384F8D21001
:104EC000C4F86421A4F8683118B3CBF8004100207D
:104ED00009B0BDE8F08F01310E2BC9B240F2C2809B
:104EE000012401942546C9E622EA040261463E46B1
:104EF0000020EBE601253E46029C042C2ED9062D0F
:104F00003FF4BCAEB4E6013B1A430792FCE672469E
:104F1000FAE60AF063FACBF800410020D8E7072050
:104F20003DE604980BF5A47105F026FC072036E653
:104F30008D49FD1A0700000000CA9A3BFF49010095
:104F400008AD0100E2200020480148017FC3C901EB
:104F5000FF59620266B20020C81F0020039C012C8A
:104F600028D9029C032CCAD8039C022C22D9062DD6
:104F70003FF484AE11B101293FF680AE0AFA03F482
:104F800000283FF49CAE072B22EA0402B0D8039815
:104F90000138C0B20390002098E6002947D003985A
:104FA0000130C0B2062D03903CD90AFA03F46146E1
:104FB0003E46E8E70AFA03F0024303980130C0B224
:104FC0008C4503904FF0010085D0B74261460DD06B
:104FD0008C460121019158E67E1C072DF6B20FD9AF
:104FE00050B9012500208AE74FF00108013601245D
:104FF000F6B24546019441E601290AD005463DE650
:1050000050B90125052BEDD803980028D2D00020F7
:1050100072E701FA03F4B6E7039D0135ECB203949D
:10502000054628E60AD108463E46614628E6062D92
:105030000BD8D8B23E4661460290E3E7BCF1000FC0
:10504000B3D008463E46614615E60AFA03F46146C7
:105050003E4634E6002991D00DE6084651B13E4661
:1050600061464CE7B742BFD019293FF43EAE4FF03E
:105070000108ADE7DCB2614602943CE700000000A5
:105080002DE9F047CE4C8EB002258DF82F1094F903
:1050900028100D95002912DB914694F87A209A4643
:1050A0004FF027082B2318FB0238074614F8083066
:1050B00013F00E0F40F09E80D4F8CC6026B10C2681
:1050C00030460EB0BDE8F08704F5867005F03AFB77
:1050D0000546002800F06B8104F5A47005F032FB52
:1050E000002800F083814FF6FF732B62AE62B4F8A4
:1050F000262195F83830B4F822C1B4F82411EE779F
:1051000062F3020385F83830B4F8282195F8393075
:10511000698662F3C50385F83930AB6B6A7F95F811
:105120005010A5F82CC023F4E02323F4FF6343F4CC
:10513000803343F4847302F03F0262F07F02AB637A
:105140001B2321F023016A77EB8506222B86DFF8EB
:1051500098C29C4B85F85010AA87EE652E66A5F87C
:105160004060A5F84460A5F84C60A5F848602E673B
:10517000A5F87460A5F89460C5F834C0C5F89830F7
:1051800095F89E30C5F8A80023F0030385F89E30FB
:10519000A5F89C60A5F8A46085F8A760C0E9006642
:1051A000894995F8D220D5F864310978A5F8B4601A
:1051B00066F3041203F07F4347F67F70A5F8D060D2
:1051C000A5F8F860A5F80461A5F80861C5E954667A
:1051D000C5E95666C5F8606185F86A6185F8D22030
:1051E000C5F86431A5F8680109B90AF0F7F8C4F800
:1051F000CC5000E0002594F829309DF82F2084F849
:105200002AA062F3020369F3C403D4F8842184F86A
:1052100029302726002301210DF12F002362E261AE
:10522000A66105F053FC14F8083003F00F03012BBE
:1052300000F0B680022B0CBF4FF4297340F2FC53F0
:1052400003FB00F061495CA3D3E90023A0FB01014B
:10525000FAF7A6FFD4E90632934238BF13466062DC
:105260009A4606F0A9FB8146002F6DD114F808304C
:1052700003F00F03A3F10103B3FA83F35B0994F87E
:105280002860626A63F3861684F8286016F0400688
:10529000924425D04E4E4F4B059300200DAACDE9E8
:1052A0000762CDF810A0CDF804A00690CDE9020069
:1052B00000904B460522032106F0F0F9022865D044
:1052C0000D98002842D0002D3FF4F9AED5F8A80083
:1052D000414905F051FA2846404905F04DFAEEE6FD
:1052E0003F48DFF8ECE0CDF81CE0BFB2A7FB0001BF
:1052F000912303FB07110DAB0893364F06962EA39F
:10530000D3E90023CDE9036A02960597FAF748FF2F
:105310004B46CDE9006005223046032106F0BEF978
:10532000022829D00D9E002ECDD194F8283094F873
:10533000E02043F0800384F82830D3073FF5C0AE67
:1053400001200EF069F8BBE6002398E70DAB4AF2A6
:10535000FE310322234F0893CDE906060091CDE9E3
:105360000300CDE901004B460597114602260D9634
:1053700006F094F90228D5D10D9B022BD2D120BF83
:1053800040BF20BF0D9B022BF9D0CBE70D9B022B1A
:1053900096D120BF40BF20BF0D9B022BF9D08FE7D5
:1053A0004FF4277303FB00F000F59C704AE70926D1
:1053B00086E600BFAFF300808D49FD1A07000000AC
:1053C000C81F0020FF49010066B2002000CA9A3BB6
:1053D00029DB000095F9000010210020D4200020D6
:1053E000002AE78445F700004801480104F586716A
:1053F000284605F0C1F9072662E600BF000000005C
:105400002DE9F04F684C94F8E0608FB0022516F05B
:105410000106BDF860A09DF864709DF868C09DF815
:105420006CE00B9540F09C8094F8E150DFF88481AB
:1054300084F8E2E060F300056CF3451599460B46ED
:1054400063F3041511461FFA8AFA062204F1E300F9
:1054500084F8E15013F086FF9125AAFB080105FBB3
:105460000A114FA3D3E90023FAF79AFE1FFA89F233
:10547000A2FB088994F8E1C0C4F8F00005FB02998A
:10548000D4F88451C4F8D86067F3420C272744A3AA
:10549000D3E90023C4E93475824684F8E1C040466C
:1054A0004946FAF77DFE0AF1090A074627385045B2
:1054B00028BF5046C4F8DC0006F07EFAD4F800316C
:1054C000272D824638BF2725002B4ED00C96D4F8C6
:1054D000DC30364ADFF8E0C007921D440BAB0026F3
:1054E0000893404649462EA3D3E90023CDF814C0C3
:1054F000049506960396FAF753FE104619464FF4A4
:105500007A720023FAF74CFE0096CDE901705346FB
:1055100030460622032106F0C1F802280FD00B9D69
:10552000F5B994F8E03094F9282043F00103002AFB
:1055300084F8E0300DDA28460FB0BDE8F08F0B9B01
:10554000022BECD120BF40BF20BF0B9B022BF9D018
:10555000E5E702200DF060FF28460FB0BDE8F08FB0
:105560000C2528460FB0BDE8F08FD4F8DC100D9361
:1055700029440CAB0DAA0320FBF7B6F90C9909B12D
:10558000DDF834A00A4806A3D3E90023A1FB0001FB
:10559000FAF706FE20F07F40824498E7AFF30080E0
:1055A0008D49FD1A07000000C81F002029DB0000FC
:1055B00000CA9A3B002AE784E5F900002DE9F04192
:1055C000114B124C124E134FE41AC4F3C9044FF09E
:1055D000FF31304613F0EAFF804605F03DF8014602
:1055E00070B125F03F0343F0010363F3070564F353
:1055F0008F1538462A4613F0F0F840460FF046FB68
:1056000011F0FAFEE3E700BFD4A701004CA80100A7
:10561000EC1C0120E9B301002DE9F04F7D4B7E4ADF
:105620007E4D7F4C8DB09B1AC3F3C903009328684D
:1056300043685B6C7BB1984768B1286843681B6C12
:105640004BB1984738B1286843685B6B33B9734BEB
:10565000186812F023FC0DB0BDE8F08F98470028C1
:10566000F5D0D4F800B0BBF1000F61D15B46012248
:105670000DF10B01286812F02AFC01280DD028F04A
:105680003F0343F0020363F30708009B654863F39D
:105690008F18414613F094F8C9E79DF80B100129C3
:1056A0000DD0022975D001234FF0000263F30702E9
:1056B000009B5D4863F38F1213F08FF8CBE7032351
:1056C0001A4603A9286812F002FC9DF80E305748CC
:1056D0002360594613F064FF834600284BD0002313
:1056E0000375032203A9083013F08CFF504BC3F855
:1056F00000B0DFF83CB1DBF80000C8B1083013F0AF
:10570000A2FF2368984213D229F03F0343F001031C
:1057100063F30709009B474863F38F19494613F069
:105720004FF8DBF800000FF0B1FA0023CBF800309F
:10573000DFF8FCB0394ADBF8003010682268002B33
:105740004DD1212A28BF212203A912F097FB2AF06C
:105750003F0343F0020363F3070A009B63F38F1ACE
:10576000834601465246344813F037F82368A3EBCA
:105770000B0323605BE727F03F0343F0010363F370
:105780000707009B2D4863F38F17394613F018F86D
:10579000ACE7224804231A4603A9006812F097FBDD
:1057A0000021274813F0FCFE834650B10223037505
:1057B000042203A9083013F025FFBDF80E30236042
:1057C00094E726F03F0343F0010363F30706009BD1
:1057D0001C4863F38F16314612F0F2FFEDE799890A
:1057E000D3F808C00023614412F071FBDBF800100D
:1057F00023688A891B1A02448A812360002B7FF464
:1058000016AF1148019313F0EAFE019BCBF800306C
:105810000DE700BF4CA80100D4A70100D80000206C
:10582000DC00002010B3010066B301005C1D012004
:105830008400002079B3010094B301002EB301006D
:105840003C1D01204CB30100EC1C012010B50C489C
:105850000C4C11F01FF8206070B112F02AFB206888
:1058600012F017FB22680849104612F027FB206847
:1058700012F01AFB002010BD6FF01500FBE700BF0F
:10588000A7B30100D8000020195600002DE9F0430D
:105890008BB03A4810F0FEFF064628B9384812F09F
:1058A000A0FE0BB0BDE8F083364810F0F3FF0546CC
:1058B00010B9354812F095FE344C354BA360354B8A
:1058C000266004F12809C4F80490A562C4E90B43DA
:1058D00004F10C0701220021384614F0F7FB04F113
:1058E000340840460122002114F0F0FB22463046E5
:1058F000294912F0E3FA4A462749284612F0DEFA0F
:10590000304612F0D1FA284612F0CEFA234812F0AF
:1059100068FE24220021684613F04EFD02238DF814
:105920000D3004978DF82130CDF8248002214FF0FE
:10593000FF32684612F0AEF801460028F6D1039B0C
:1059400003F4F832B2F5005F09D160F3103303932A
:10595000384611F0CFFD304612F096FAE6E7089B84
:1059600003F4F832B2F5005FE0D160F3103308932E
:10597000404611F0BFFD2846EEE700BF24B4010009
:105980002EB4010048B401004FB40100880000208B
:105990000C1D0120FC1C0120A159000063B4010072
:1059A0002DE9F8430546D0E9004663685B6C0BB10E
:1059B00020469847DFF82C81002763685B6B002B3B
:1059C00064D1204612F06AFA002800F08880A868A6
:1059D000002114F0FBF90746002879D12046BDE8E4
:1059E000F84312F056BA302011F0C2F9014668624D
:1059F00050B3A0F82C90D5F82490B9F1000FF2D054
:105A0000B9F82C20111D4944C2F12802204612F099
:105A100035FA696A8B8D184480B288850028CCD00D
:105A2000282808D00844C2780D2AC6D842F201437B
:105A3000D340DB07C1D5B06814F09FF906F10C0024
:105A400011F02CFD6F62B8E76B68986814F0BEF92E
:105A5000014610B114F021F9CDE7A86814F0B6F9A9
:105A600001460028F6D1A86814F0B0F90028F1D159
:105A7000AB680146184614F0A9F90028EAD140465F
:105A800012F0AFFD012002F0F7F8B4E72046984786
:105A90000028B0D195E75B69C3B1311D921B394431
:105AA00020469847304486B2BA8D6368B242F2D835
:105AB00063681B6B73B9AB681B6813B9204612F09F
:105AC000E8F93846BDE8F84314F0E7B81846E9E7C6
:105AD0000026E9E7204698470028E9D0EBE7BDE833
