:020000040000FA
:10000000A8600020812C0000C9660000B12C00000F
:10001000B12C0000B12C0000B12C0000B12C00006C
:10002000000000000000000000000000792B00002C
:10003000B12C000000000000312B0000C562000060
:10004000592C0000592C0000592C0000592C00009C
:10005000592C0000592C0000592C0000592C00008C
:10006000592C0000592C0000592C0000592C00007C
:10007000592C0000592C0000592C0000592C00006C
:10008000592C0000592C0000592C0000592C00005C
:10009000592C0000592C0000592C0000592C00004C
:1000A000592C0000592C0000592C0000592C00003C
:1000B000592C0000592C0000592C0000592C00002C
:1000C000592C0000592C0000592C0000592C00001C
:1000D000592C0000592C0000592C0000592C00000C
:1000E000592C0000592C0000592C0000592C0000FC
:1000F000592C0000592C0000592C0000592C0000EC
:10010000592C0000592C0000592C0000592C0000DB
:10011000592C0000592C0000592C0000592C0000CB
:10012000592C0000592C0000592C0000592C0000BB
:10013000592C0000592C0000592C0000592C0000AB
:10014000592C000053B94AB9002908BF00281CBF28
:100150004FF0FF314FF0FF3000F070B9ADF1080CF7
:100160006DE904CE00F006F8DDF804E0DDE90223D5
:1001700004B070472DE9F04F099E04468946002BD4
:1001800040F083808A42154645D9B2FA82F24AB1DC
:10019000C2F1200701FA02F39540944020FA07F7D4
:1001A00047EA03094FEA154E230C1FFA85F8B9FBFD
:1001B000FEFC0EFB1C990CFB08F143EA0943994233
:1001C0000AD9EB182CBF01200020994202D900283F
:1001D00000F01D810CF1FF3C591AA3B2B1FBFEF0F7
:1001E0000EFB101100FB08F843EA0144A04505D9B5
:1001F0002C1902D2A04500F20E810138A4EB0804AC
:1002000040EA0C4000271EB1D4400023C6E9004359
:100210003946BDE8F08F002A51D0B2FA82F2002AA6
:1002200040F0AF80491B4FEA154E1FFA85F80127B1
:10023000230CB1FBFEFC0EFB1C1108FB0CF043EA87
:10024000014398420AD9EB182CBF012100219842A2
:1002500002D9002900F0D7800CF1FF3C191AA3B293
:10026000B1FBFEF00EFB101108FB00F843EA01445D
:10027000A04505D92C1902D2A04500F2C180013851
:10028000A4EB080440EA0C40BDE78B4208D9002EDD
:1002900074D00027C6E9000138463946BDE8F08F22
:1002A000B3FA83F767B98B42C0F0A480824240F270
:1002B000A1803846002EABD0C6E90049A8E7FFDE92
:1002C000C7F12005BB4002FA07FC01FA07F4EA4037
:1002D00020FA05F8E94000FA07FE1A4348EA040448
:1002E0004FEA1248200C1FFA82F9B1FBF8FA08FB1A
:1002F0001A110AFB09FB40EA01418B450AD9511842
:100300002CBF012300238B4502D9002B00F08880ED
:100310000AF1FF3AA1EB0B01A4B2B1FBF8F008FB24
:10032000101100FB09F944EA0141894504D951182B
:1003300001D289457BD8013840EA0A40A1EB090186
:10034000A0FB0C89494544464B4602D306D1C6451D
:1003500004D20138B8EB0C0469EB0203002E5DD027
:10036000BEEB040261EB030101FA05F522FA07F383
:10037000F94000271D43C6E9005149E7374630469A
:1003800046E7C2F12000954001FA02F721FA00F396
:100390004FEA154E24FA00F11FFA85F894403943CC
:1003A000B3FBFEF00F0C0EFB103300FB08FC47EA1A
:1003B00003439C4507D9EB182CBF012700279C4518
:1003C00000D98FB30138A3EB0C0389B2B3FBFEF75E
:1003D0000EFB173307FB08FC41EA03418C4504D9A7
:1003E000691801D28C4525D8013FA1EB0C0147EAE1
:1003F00000471DE7841A61EB03030120994659E782
:1004000002382C443CE7ACF1020C2B4426E7ACF15B
:10041000020C2B44E0E602382C44EFE63746F7E6C0
:10042000AAF1020A114475E702382B44CBE70238DF
:10043000114481E7023F2944D7E700BF704700BF5E
:1004400030B585B04FF00000032363F302006FF373
:10045000C500524B524A9B1AC3F3C90363F38F1072
:10046000504905F00AFD00F0F7F84F4800F0AEF8EB
:1004700000283DD04D4804F0F7F90446C56883686C
:100480001B684FF488721A21984718B92B6823F01B
:1004900080632B60A3685B686946204698470346E3
:1004A00010B9009BC3F380635BB94FF05022D2F8C0
:1004B00000241AB112F0010F00D1012313F0010F33
:1004C00027D001A800F076FB002839D04FF00000BB
:1004D000012363F302006FF3C500304B304A9B1ACF
:1004E000C3F3C90363F38F10314905F0C6FCFEE77F
:1004F000012363F302006FF3C500284B284A9B1ABF
:10050000C3F3C90363F38F10274A2A4905F0B5FCEA
:10051000FEE74FF00000032363F302006FF3C50012
:100520001E4B1F4A9B1AC3F3C90363F38F10224962
:1005300005F0A3FC01F0E0FD204802F0C1F9C0E79E
:1005400003254FF0000065F302006FF3C500134C64
:10055000134BE41AC4F3C90464F38F10039A1849C7
:1005600005F08BFC4FF0000065F302006FF3C5004F
:1005700064F38F10134905F080FC01A804F024FCFB
:100580004FF00000012363F302006FF3C50064F332
:100590008F100D4905F071FCFEE700BF048F0000CD
:1005A000FC8E0000808F0000948F0000C48F00003C
:1005B000EC8F0000A88F0000CC8F0000788F000027
:1005C0000C900000389000005890000008B5054BD2
:1005D0001B6813B1034B186808BD04F045F9014BC3
:1005E0001860F7E71001002010B90020086070477C
:1005F00008B502464FF00000012363F302006FF3D9
:10060000C500074B07495B1AC3F3C90363F38F1097
:100610000023054905F031FC6FF0150008BD00BF4F
:10062000048F0000FC8E00007890000010B584B0AC
:100630000C46084B1B6801AA0146184606F04EFA04
:10064000034618B9019A2260029A6260184604B003
:1006500010BD00BF1001002008B54FF4C051024882
:1006600003F082FB08BD00BF1401002002680E4B9E
:100670009A420DD1C2680389D84382420CD810B483
:10068000D418012010B18B68A34203D910BC704765
:10069000002070470020F9E7002010B18B68A342CA
:1006A00000D97047002070473DB8F39600B587B079
:1006B00000200490039002904FF480730193074B45
:1006C000009313460A46014600F0B8FE034618B9E7
:1006D000184607B05DF804FB0323F9E7742D0020EA
:1006E0002DE9F04182B005460C461746002004F083
:1006F0008EFB01A9C0B201F0ADFA28B14FF0FF3571
:10070000284602B0BDE8F0812C2000FB04562146AB
:10071000284604F0FAFB88B3336913F0100F32D186
:10072000DDF8048041463046FFF7A0FFA8B9ECB9D8
:100730004FF00000012363F302006FF3C500134B79
:10074000134A9B1AC3F3C90363F38F10A4B9114A68
:10075000114905F092FB012511E03B464246314626
:100760002846FFF7A3FF054648B1E0E701988268F5
:10077000002105F048FCDBE7084AE9E7012501987C
:1007800005F0F1FBBCE70125F9E700BF048F00008D
:10079000FC8E000078910000809100006C910000B8
:1007A00030B583B005460C460023009301930846FC
:1007B00004F04CFC30B32A681F4B9A4216D0EA6A08
:1007C0001D4B9A4218D0019B009A934200D9009386
:1007D000009BA360009A2146284600F091FC174B2D
:1007E0001A68002A16DC002003B030BD6A460021DA
:1007F000284604F033FBE2E701AA0121284604F071
:100800002DFBE0E704F10801002004F056FEA36888
:100810000093DFE74FF00000022363F302006FF361
:10082000C500074B07495B1AC3F3C90363F38F1075
:10083000054905F022FBD6E73DB8F396742E00205B
:10084000048F0000FC8E00004091000038B5044683
:100850000D46FFF7A5FF0246EB7984F85830033BBD
:10086000DBB2012B0CD9EB79022B13D0042B11D066
:10087000032B0FD094F85830FF2B15D0104638BDFD
:10088000002004F0F6FC02460028ECD0FF2384F898
:100890005830E8E7002004F0D9FC02460028E9D0EF
:1008A000FF2384F85830E5E74FF00000012363F39D
:1008B00002006FF3C500054B054A9B1AC3F3C90339
:1008C00063F38F10034905F0D8FAFEE7048F0000A8
:1008D000FC8E0000A890000038B504460D4604F0D8
:1008E0005EFB68B900221146204604F06EFBF0B9A9
:1008F000204600F0DFFA80BB012384F8583015E071
:100900004FF00000022363F302006FF3C500484B71
:10091000484A9B1AC3F3C90363F38F104FF48072E4
:10092000454905F0AAFA012384F8583038BD4FF044
:100930000000022363F302006FF3C5003C4B3D4A05
:100940009B1AC3F3C90363F38F1000223B4905F0E0
:1009500094FA012384F85830E8E7284604F06CFB49
:100960002946204604F039FCE8B9284604F06EFB1D
:1009700080F001012A46C9B2204604F026FB40BBA4
:10098000284604F063FB002839D0EB79012B43D0D3
:100990002A4601212046FFF7A3FE002843D0052365
:1009A00084F85830C2E74FF00000022363F30200DE
:1009B0006FF3C5001E4B1F4A9B1AC3F3C90363F3B1
:1009C0008F1000221E4905F058FA012384F8583090
:1009D000ACE74FF00000022363F302006FF3C500A1
:1009E000134B144A9B1AC3F3C90363F38F100022FD
:1009F000124905F042FA012384F8583096E7294657
:100A00002046FFF723FF2A460021204604F0DDFAA6
:100A1000012384F8583089E72946204604F0F0FA8B
:100A200084F8580082E7EB7984F858307EE700BFFD
:100A3000048F0000FC8E0000B0900000F0900000D9
:100A4000189100002DE9F84F884692461F46DDF8C0
:100A500028900B9E00250FE023460F4AE9194046D7
:100A600005F082FAA0B923460B4A05EB090150466E
:100A700005F099FA70B92544B54206D2741BB4F555
:100A8000806FE9D94FF48064E6E70020BDE8F88F75
:100A90000120FBE70120F9E774190020F0B585B0CB
:100AA00004460E466022002105F07DFE3C4B636249
:100AB0003C4B236500250CE02946002004F0A7F9F3
:100AC0002C2101FB05F120312144C0B201F0C2F814
:100AD0000135012DF0D969462046FFF7FDFE94F857
:100AE00058308DF80730013B042B33D8DFE803F092
:100AF0000703030329006946204604F0B8FA94F876
:100B00005830FF2B2AD0012B06D06A460021204600
:100B100004F05BFA074690B9002211462046FFF721
:100B2000DFFD074660BB10220021684605F03BFE52
:100B3000236A5B783371236A5B68B3603460002595
:100B400029E0002004F095FB0028D8D0FF2384F88A
:100B50005830D4E7FF2384F85830D0E74FF0000036
:100B6000012363F302006FF3C5000F4B0F4A9B1A7A
:100B7000C3F3C90363F38F100D4905F07EF9FEE757
:100B80000327DCE7C5F101032C2202FB0343186AAB
:100B900005F0E9F90135012DF4D9384605B0F0BD6D
:100BA000741D002074250020048F0000FC8E0000BE
:100BB000A890000008B501460148FFF76FFF08BD87
:100BC000141900202DE9F04182B0884616461C46D3
:100BD000536A53F830501A68AD1A013853F8307020
:100BE000BF1A2368012B1CD042462946089804F0FE
:100BF00096FACDF8048000953B46089A1146304697
:100C0000FFF720FF2146304604F056FA23680133EF
:100C1000236018B10C4A13680133136002B0BDE8B9
:100C2000F081E368022B04D10999304604F07BFA85
:100C3000DAE70899304604F076FA224608993046F9
:100C400004F0A9FAF0E700BF742E00202DE9F0436C
:100C500083B0884615461C46526A52F830701368B5
:100C6000FF1A013852F83060F61A2A6D52F8301027
:100C70001368A1EB03092379012B05D02379022BFB
:100C80001DD003B0BDE8F083424631460A9804F017
:100C900046FACDF8048000964B460A9A0B992846EE
:100CA000FFF7D0FE2146284604F006FA02232371FE
:100CB0000028E3D0114A136801331360DEE742468F
:100CC00049460B9804F02BFACDF80480CDF800903B
:100CD0003B460B9A0A992846FFF7B4FE2146284660
:100CE00004F0EAF92368013323600123237100280B
:100CF000C7D0024A136801331360C2E7742E002084
:100D000070B582B016461C46002B36D0436A5D682B
:100D10006379012B11D0022B17D00025002004F09D
:100D200076F801A9C0B200F095FF68B301250198DB
:100D300005F019F9284602B070BD01BB22681C4BB2
:100D40001B689A42EAD80025E8E72368012B07D9F7
:100D5000174A1268934203D899B900250121DDE7AB
:100D6000012B01D00025D9E701B100250129D5D1FA
:100D70002379022BD2D10021D0E70025CEE7002530
:100D8000CCE700252946C9E72023324629460198A9
:100D900005F0EAF8054640B9002CC8D03268054B8A
:100DA0009A42C4D04FF0FF35C1E70125BFE700BF2D
:100DB000000000203DB8F3962DE9F04F85B00646BF
:100DC0000D4601920146002004F0E8FA041E62DBA1
:100DD000D5F85CA0304604F0EFFA81464FF0000BE6
:100DE00001274FF0FF3805E0874201D00BF1010BDE
:100DF0002C460746002C13DD651E5FFA8AF101239D
:100E00000DF10F0205FB0191304604F00CF80028AB
:100E100043DB0128E8D0B8F1FF3FE9D1A046E7E77E
:100E2000BBF1010F0EDCB8F1FF3F3AD0B8F1FF0F74
:100E30001ADC012301994B7108EB03020A600B7164
:100E400000202BE04FF00000012363F302006FF35A
:100E5000C500154B154A9B1AC3F3C90363F38F10E2
:100E6000134905F00AF8DEE70223019A5371A8F549
:100E7000807808EBD8735B1001331360B8F1000F72
:100E800008F00108B8BFC8F1000808F1010882F8AD
:100E90000480002002E0072000E0012005B0BDE84A
:100EA000F08F0020FAE700BF048F0000FC8E0000E6
:100EB0004092000038B5856A436D9D4210D1B5F56A
:100EC000807F20D80023AB4243D2416ADC0021441A
:100ED0004968026D224452688A4227D10133F2E701
:100EE0004FF00000022363F302006FF3C5001A4BBA
:100EF0001A4A9B1AC3F3C90363F38F10184904F00D
:100F0000BCFF002038BD4FF00000022363F3020055
:100F10006FF3C500104B114A9B1AC3F3C90363F367
:100F20008F10104904F0A9FF0020EBE74FF00000FC
:100F3000022363F302006FF3C500074B074A9B1AB5
:100F4000C3F3C90363F38F10074904F096FF002031
:100F5000D8E70120D6E700BF048F0000FC8E000018
:100F6000A4910000DC9100000892000010B586B04A
:100F700004A9022004F08CFA4FF00000032363F36D
:100F800002006FF3C500264B264A9B1AC3F3C90320
:100F900063F38F109DF81030012B2DD0032B29D037
:100FA000214B9DF811209DF812109DF813400294DA
:100FB000019100921D4A1E4904F05FFF9DF8103018
:100FC000012B03D19DF81230032B17D04FF00000F6
:100FD000032363F302006FF3C500114B114A9B1A00
:100FE000C3F3C90363F38F10124904F046FF0020D6
:100FF00006B010BD104BD4E7104BD2E74FF0000005
:1010000063F302006FF3C500054B064A9B1AC3F356
:10101000C90363F38F100A4904F02FFF0220E7E7AA
:10102000048F0000FC8E00008C920000A092000053
:10103000B092000008930000989200009092000087
:10104000EC920000F0B587B04C6804F0FF24244D0A
:10105000AC4202D10C68012C01D007B0F0BD16469D
:101060000C46054604A9184604F012FA4FF0000099
:10107000032363F302006FF3C5001A4B1A4A9B1A4D
:10108000C3F3C90363F38F109DF81030012B24D0F4
:10109000032B20D0154B9DF811209DF812109DF8C0
:1010A0001370029701910092114A124904F0E5FE73
:1010B0009DF81030032BD0D13146284604F033F888
:1010C000304604F01CFAA168304604F031FA30468C
:1010D00000F0E4F8C1E7084BDDE7084BDBE700BFB1
:1010E00000010004048F0000FC8E00008C920000C0
:1010F00030920000B09200009892000090920000A0
:10110000F0B585B007460D4600213E4B1960436A95
:101110005E6831443B480368013303609142F8D371
:10112000284603F093FF70B1F86D04F032F9BA6A03
:10113000013A00233344984201D9013AFAE7314B8E
:101140001B68934214D203A9022000F083FD02A978
:10115000072000F07FFD0723029A29463846FFF753
:1011600071FF6B79012B17D002236B71012438E0DA
:101170004FF00000022363F302006FF3C500224B1F
:10118000224A9B1AC3F3C90363F38F10204904F06A
:1011900074FE0123EB7132E01A4B1C6800E0013C45
:1011A0008CB12A68174B1B689B1A01339C42F6D8F6
:1011B000029B0193039B00932B463A4631462046FF
:1011C000FFF700FDEBE701232B60CDE7029B0193C6
:1011D000039B00932B463A4631462046FFF736FDE7
:1011E0000134084B1B68A34203D32B68A342F7D8F2
:1011F000ECE7039804F0B7FE029804F0B4FE05B0E3
:10120000F0BD00BF00000020048F0000FC8E000035
:101210006092000008B51022034905F08AFA08B16F
:10122000022008BD0120FCE71C93000070B586B0C9
:101230000E460024ADF8044002238DF8043007E088
:10124000306804F090FE23E0306804F08CFE013436
:10125000012C1BD8314606AB234413F8140C00F0C4
:10126000F9FC0546A0B930688168102302AA10393C
:1012700004F07AFE05460028E2D11022064902A8B1
:1012800005F057FA05460028DED101E04FF0FF35A2
:10129000284606B070BD00BF1C93000008B58168E9
:1012A0001023054A103904F07EFE034608B918469B
:1012B00008BD0123FBE700BF1C93000030B585B0DB
:1012C00002A9022004F0E4F800286DD16946072045
:1012D00004F0DEF8002869D1002407E02B79042B04
:1012E00028D09DF80A20934224D00134022C47D8FC
:1012F00004EB44035B002E4AD5189DF80810D05C1F
:1013000004F033F80028F0D09DF80010687804F05D
:101310002CF80028E9D0AB78042B03D09DF80B20E3
:101320009342E2D1EB78042BD8D09DF8032093426E
:10133000DBD1D3E74FF00000032363F302006FF328
:10134000C5001C4B1C4A9B1AC3F3C90363F38F10DF
:101350006B79022B07D0032B10D0042B01D0174A36
:1013600002E0174A00E0174A174904F086FD687941
:10137000831EDBB2022B15D9FF2013E0134AF3E7DB
:101380004FF00000032363F302006FF3C500094B25
:10139000094A9B1AC3F3C90363F38F100C4904F085
:1013A0006CFD012005B030BDFF20FBE7FF20F9E711
:1013B0002C930000048F0000FC8E0000509300006E
:1013C00064930000409300006C9300004893000079
:1013D0007C93000070B5A4B0202928D80D4606469D
:1013E0000024144B1B68A3421CDD09A807F001F977
:1013F000002109A802F0E6FD0F4B03EBC40252687E
:10140000126853F8341009A807F0F9F801A909A8DF
:1014100007F038F92A46314601A805F08AF918B1D3
:101420000134DEE74FF0FF34204624B070BD4FF0AA
:10143000FF34F9E79C900000A09000002DE9F041F6
:10144000D6B017461D465F9C04945E9C039406AC80
:1014500002945D9C01945C9C009404F079F806462B
:10146000002840F08280609B23B1202206A9184604
:1014700005F076F9002300934FF6FF732A463946AC
:101480004EA804F028F9064600286ED1074680468B
:101490004FF0FF341DE04FF0FF341AE04FF0FF34FF
:1014A00017E04FF0FF34012713E0BDF85231202B35
:1014B0005FD10EAA5599284604F056FD00285BD14D
:1014C00020220EA906A805F034F9002856D14FF0C5
:1014D000010854AB0DF5A97255A94EA804F060F9A6
:1014E000002840DB38DCBDF85031102BDDD0012B5B
:1014F00021D0202BEDD1002CCDDB294B1B68A34242
:10150000CCDDBDF85231B3F5807F3FD10EAA55999D
:10151000284604F029FD00283BD1E4B20094BDF830
:1015200052310EAA202106A800F0B0F80028B8D049
:101530004FF0FF34CDE7BDF85231202B21D80EAA51
:101540005599284604F010FDF0B99DF852110EA8E7
:10155000FFF740FF0446BCE7B8F1000F1CD027B9E5
:101560004FF0FF3601E04FF0FF36304656B0BDE891
:10157000F0814FF0FF36F8E70646F6E74FF0FF360A
:10158000F3E74FF0FF36F0E70646EEE74FF0FF36A1
:10159000EBE74FF0FF36E8E74FF0FF36E5E700BF37
:1015A0009C90000070B5ADF51C7D4468B4F5807F5B
:1015B00055D1202A56D10E4641AA194602F0C0FC48
:1015C0000546002851D19DF80332BC2B50D10DF2B5
:1015D000E31109A804F04DF82B46DE2B07DC41AAE5
:1015E000D25C09A8C45C6240C2540133F5E79DF89F
:1015F000243003F07F038DF82430BD2D05DC09ABCA
:101600005B5D002B37D10135F7E79DF8E230012B08
:1016100037D181A806F0EDFF002181A802F0D2FCAD
:101620000822194981A806F0EAFF2022314681A844
:1016300006F0E5FF20220DF1E30181A806F0DFFFAF
:1016400001A981A807F01EF820220DF2E31101A8DC
:1016500005F06FF8034680B14FF0FF330DE04FF017
:10166000FF330AE04FF0FF3307E04FF0FF3304E0B1
:101670004FF0FF3301E04FF0FF3318460DF51C7DAE
:1016800070BD4FF0FF33F8E78C9300002DE9F04177
:10169000ACB006460F4690461D469DF8C840002255
:1016A000114601A806F05FFF114B53F83420009259
:1016B00003EBC4035B681B681A44694601A803F086
:1016C00086FF044610B9029BAB4206D001A806F083
:1016D00058FF20462CB0BDE8F08143463A463146DB
:1016E00001A8FFF75FFF044601A806F04AFFF0E7F4
:1016F000A0900000BFF36F8F72B600230F2B09D8A4
:1017000003F120010A4A4FF0FF3042F82100013373
:10171000DBB2F3E700230F2B09D803F16001044A81
:101720004FF0FF3042F821000133DBB2F3E770479E
:1017300000E100E02DE9F043DDF81CE0BEF1000F10
:1017400041D03D4CA4FB0E4C4FEA5C0C0CEB4C041E
:10175000A6450CBF64460CF10104B4F1804F35D2AC
:10176000A40001348C4237D8B0B30CEB4C0C0446C7
:101770000027674534D293F8008059789D782F4E22
:101780004FEA980916F8099084F800904FEA081873
:1017900008F0300808EB211808F03F0816F8088018
:1017A00084F80180890001F03C0101EBA51101F0F2
:1017B0003F01715CA17005F03F05715DE170033779
:1017C00004340333D5E7002010602DE04FF0FF33E1
:1017D00013606FF00B0027E014606FF00B0023E044
:1017E00077451DD21978013777451FD25D78134EA2
:1017F0008B08F35C23700B0103F0300303EB25131C
:1018000003F03F03F35C6370774511D2AD0005F040
:101810003C05E31C715DA1701C463D2304F8013BAF
:10182000201A106000202070BDE8F0830025DEE75C
:10183000E31C3D21A170EFE7ABAAAAAA28950000FE
:10184000F0B58E46059F00218C460C461CE0BC423C
:1018500030D03E1B012E02D91E5D0D2E1FD01E5D05
:101860000A2E10D0002D75D13D2E1DD016F0800F00
:1018700073D13E4DAD5D7F2D72D03F2D01D8002933
:1018800071D10CF1010C0134BC4213D20025BC42D1
:10189000DDD21E5D202EDAD101340135F7E71E19A5
:1018A00076780A2EDBD1EEE701310229DED96FF01E
:1018B00015004EE0BCF1000F17D04FEADC0606EB36
:1018C000460675000CF0070C0CEB4C0C4FEA4C066E
:1018D000073605EBD6056D1A50B1754508D8054693
:1018E0004FF0000C0327664609E00020106030E04E
:1018F00015606FF00B002CE00026013C01332CB387
:1019000019780D29F9D00A29F7D02029F5D0DFF868
:101910005CE01EF80110402908BF013F01F03F01C3
:1019200041EA8C1C0136042EE7D11FB1CCF30741EC
:1019300005F8011B012F03D9CCF3072105F8011B82
:10194000022FD9D905F801CB0026D6E7281A106056
:101950000020F0BD6FF01500FBE76FF01500F8E711
:101960006FF01500F5E76FF01500F2E7A89400009E
:1019700008B50B6801330B60014B1B68984708BD25
:10198000040000202DE9F04F83B0824601911546F6
:101990009B46DDF83090B9F1000F2CDD4FF00108C7
:1019A0000A260027214C10E0B5FBF4F001993030F5
:1019B000D04708F101080127013EB5FBF4F304FB11
:1019C00013551B4BA3FB0434E408092C16D9002F34
:1019D000EAD1AC42E8D94E45EEDCBBF1020FEBD8C0
:1019E000BBF1010F05D020200199D04708F1010873
:1019F000E2E73020F8E74FF00109CFE7019905F160
:101A00003000D047BBF1030F02D003B0BDE8F08F28
:101A1000A9EB080803E001992020D047A04608F16F
:101A2000FF34B8F1000FF6DCEFE700BF00CA9A3BC5
:101A3000CDCCCCCC00B583B0002301930B4602463D
:101A400001A9034803F0A0FF03B05DF804FB00BF49
:101A5000711900004FF02002EFF3118382F3118817
:101A6000BFF36F8F044A0121C2F8401583F3118838
:101A7000BFF36F8F002070470090035030B108B55E
:101A80008001034B43F00103984708BD704700BF36
:101A9000708F00002DE9F04383B080460F46164654
:101AA000114B1B6898478146002400E001340F4B1E
:101AB0000F4A9B1AB4EB231F12DA0D4800EB0410F7
:101AC00043685B79002BF1D02301094AD3585D6844
:101AD000002DEBD000963B464A464146A847E5E735
:101AE00003B0BDE8F08300BF08000020348F000081
:101AF000348F000008B5044B044A1A604FF40040CC
:101B000000F07AF808BD00BF08000020735E0000F6
:101B100008B50B4BC31A1B1101334268137143689C
:101B20001960436801225A71064B1B781BB1054BA3
:101B300001221A7008BD044803F098F8F7E700BFC7
:101B4000348F0000A2380020E000002038B5134B8D
:101B5000D3E8EF2F511CC3E8E01F0028F8D1DAB911
:101B6000002405E0042200212846FFF7D1FF0134BC
:101B70000B4B0C4A9B1AB4EB231F0DDA094D05EBF6
:101B800004152B7B002BF2D02301064AD3585B6946
:101B9000002BE7D09847E5E738BD00BF782E00203E
:101BA000348F0000348F0000104B1B7803B1704756
:101BB00010B5FFF7CBFF002400E001340C4B0D4AB9
:101BC0009B1AB4EB231F0CDA0A4800EB041043689D
:101BD0005B79002BF1D02301064AD3581B69984743
:101BE000EBE7024B01221A7010BD00BFA3380020A2
:101BF000348F0000348F0000074B01221A60074B1E
:101C0000984205D94008044A13685B001360F6E760
:101C1000034B1860704700BF802E002040420F0029
:101C20007C2E002010B404460022084B1B6893420F
:101C300008DD130106490968C818CB5CA34202D02D
:101C40000132F2E7002010BC704700BF1C96000074
:101C50000C000020084B1B683BB110B50C46FFF789
:101C6000E1FF28B12060002010BD6FF00C0070472C
:101C70006FF00100F8E700BF0C00002000B58BB04A
:101C800003AB0093024B04F047F90BB05DF804FB83
:101C9000DD5E000008B504464FF02002EFF311832B
:101CA00082F31188BFF36F8F04F00DFB204601F023
:101CB000EDF8034804F008F800F09AFFFCE700BFD5
:101CC0002096000008B501214FF4807004F0D0F98F
:101CD00028B100210A4804F0EBF9437A33B102211C
:101CE0004FF4827004F0C4F928B908BD00210448FB
:101CF00004F0B4FAF3E70121014804F0AFFAF4E785
:101D00008000002020F07F40014BC3F84005704761
:101D100000500150014BD3F840057047005001506E
:101D2000014B00221A60704740510150024B4FF4A2
:101D30008032C3F84423704700500150024B4FF4E7
:101D40008032C3F80823704700500150024B4FF413
:101D50008032C3F80423704700500150014BD3F880
:101D6000040570470050015038B5FFF7D9FFFFF761
:101D7000D1FF054D2C68214604F0A6FA04442C60DE
:101D800002F0B8FF38BD00BF9C2E002038B5FFF729
:101D9000E5FF0446FFF7BEFF0546FFF7C1FF2046FB
:101DA000FFF7B0FFFFF7C2FF2146284604F08CFA88
:101DB000012805D0054B4FF40012C3F8802138BD2F
:101DC0000F2006F016FFFFF7ABFFF3E700E100E09E
:101DD00038B5134802F048FDF0B18268126801215D
:101DE0009047104D0024C5F80845FFF799FF0E4BAA
:101DF0004FF40012C3F88021FFF7A8FF224601210B
:101E0000152000F0D9FE152000F0C6FE0123074A78
:101E100013602B60204638BD4FF0FF30FBE700BF5A
:101E2000709600000050015000E100E008500150A1
:101E300038B5B0F1FF3F1ED0441E114B9C4201DC6F
:101E4000002C1BDD0E4B9C4200DD0E4CFFF786FF85
:101E50000D4B1D68294604F037FAB0F5000F00D38A
:101E6000002420440130B0F5000F00D30548284479
:101E700004F060FA38BD00F50000DDE70024E5E776
:101E8000FEFF7F00FFFF7F009C2E002010B54FF06B
:101E90002003EFF3118483F31188BFF36F8FFFF7F3
:101EA0005DFF044B196804F00FFA84F31188BFF347
:101EB0006F8F10BD9C2E002038B54FF02003EFF33C
:101EC000118583F31188BFF36F8FFFF747FF054B31
:101ED0001C68214604F0F8F9204485F31188BFF30B
:101EE0006F8F38BD9C2E002010B44FF02003EFF30D
:101EF000118183F31188BFF36F8F184B1B685BB19F
:101F0000174A5268934207D000221A60144A526856
:101F1000C2B11360124A5360124B1B682BB11C688C
:101F2000104A14605268934210D081F31188BFF3B5
:101F30006F8F73B1094A136003F108020260586899
:101F400010BC7047064A53601360E5E7054A5460C9
:101F5000EBE7024A136003601846F1E7AC2E00205D
:101F6000A02E0020C032002000B583B0354B186889
:101F700083685B6C03B19847324B186883685B6B6E
:101F80000BB1984738BB03B05DF804FB2E4B1B68C0
:101F900043B119682C4A11605268934214D02B4AFD
:101FA000136028E04FF00000012363F302006FF399
:101FB000C500274B274A9B1AC3F3C90363F38F104D
:101FC000254903F05AFFDEE71F4A5160E7E79DF815
:101FD00007300A2B1ED01B4B186883689B69002BA7
:101FE000D1D001220DF1070198470128CBD1174B21
:101FF0001B68002BCAD0194B1B88B3F5007FE6D2B3
:10200000124A1268581C1549088013449DF807208D
:102010001A72DCE70D4B1B68104A12885A600022C6
:102020001A600F4A526842B113600D4A5360002390
:102030000A4A1380054A1360CDE7094A53601360CA
:10204000F5E700BFC8320020A02E0020A82E0020F7
:102050001C8F0000FC8E0000A4960000A038002019
:10206000C032002000B583B0194802F0FDFB194BC7
:102070001860002829D0836823B19B6C13B10246F5
:1020800015499847134B186883685B6B63B1984791
:1020900050B1104B186883689B692BB101220DF178
:1020A000070198470028F4D10C4B00221A80094BF5
:1020B000186883689B6A03B19847002080F31188F1
:1020C000BFF36F8F03B05DF804FB4FF0FF30F9E70B
:1020D000D0960000C8320020691F0000A038002000
:1020E00010B50446034B1868E1B283685B689847F3
:1020F000204610BDC832002010B5104A00231360DE
:1021000053600F4A1360536003E00C494A600A6051
:102110000133012B0EDC0B489A011A44D1004218FE
:1021200000244450054949680029EED00A6003495B
:102130004A60EDE7FFF796FF10BD00BFA02E00201C
:10214000C0320020B02E0020F0B406460123B1FBBF
:10215000F3F2092A03D903EB83025300F7E7304671
:10216000002505E0303400F8014B013513463946AF
:1021700073B1B1FBF3F403FB1417074AA2FB03C2CC
:10218000D208002DEED19942ECD2092BEED8E9E726
:102190000370801BF0BC7047CDCCCCCC38B5436805
:1021A0009C18802C0AD8154604460648184404F0AA
:1021B000D7FA62682A446260002038BD4FF00040C0
:1021C000FBE700BFD43200202DE9F043D3B04B4BE6
:1021D0001B88ADF840314A4B5C68DFF83C91D9F878
:1021E000000003780133037000254570C4F3072312
:1021F00043EA042343808288130A43EA022383804C
:1022000000952B4641F22102082103F025FB0346ED
:10221000ADF84601DFF804810122009241F221026B
:102220002146404603F018FB030A43EA0023ADF8B9
:102230004631344F3B685B68022150A8984704F14F
:102240000A039BB21A0A42EA0323ADF84431022280
:1022500051A930A804F084FA0226ADF8446108229E
:10226000D9F800100DF1C20004F07AFABDF844016B
:10227000083080B2ADF844012246414630AB1844E4
:1022800004F06EFABDF84401204480B2ADF8440178
:1022900032460DF5A37130AB184404F061FABDF875
:1022A000443133449BB2ADF84431009330AB03AAC0
:1022B000AD2104A8FFF73EFABDF80C10ADF84411AB
:1022C0003B685B6804A898473B685B6831460E48EA
:1022D00098474FF00000032363F3020065F3C50045
:1022E0000A4B0B4A9B1AC3F3C90363F38F100949C6
:1022F00003F0C3FD53B0BDE8F08300BF408F000082
:1023000010000020CC320020E8960000048F00006E
:10231000FC8E0000EC960000D0320020D432002069
:1023200070B50E4C0E4D4FF0FF322146284602F09C
:102330006FFA0C4E304604F0EAF902463146204668
:1023400006F066FB00220023204606F019FB21461A
:10235000284606F06AFBFFF737FF70BD64330020A4
:1023600054330020F09600002DE9F0479EB0002382
:102370001D9301AA04F074F848B1002318464FF0E9
:10238000FF360027994634463D46984640E04FF0D8
:10239000030A4FF00000032363F302006FF3C5004C
:1023A000C04BC14A9B1AC3F3C90363F38F10524653
:1023B000BE4903F062FDBE4C4FF0FF322146BD48DE
:1023C00002F026FABC4D284604F0A1F9024629463F
:1023D000204606F01DFB5246D317204606F0D0FAE1
:1023E000BAF1000F00F07A81B149B24806F01DFB46
:1023F000FFF7EAFE1D9803F0B6FD1EB0BDE8F087BA
:1024000003EB83021EA901EB820252F86C0C01332C
:102410001A9A9A4230D903EB83021EA901EB820279
:1024200012F8642C032AF2D801A151F822F000BF5F
:10243000012400004124000055240000672400000E
:1024400003EB83021EA901EB820252F86C8C52F856
:10245000689CDCE703EB83021EA901EB820252F8C1
:102460006C6CF717D3E703EB83021EA901EB820222
:1024700052F86C4CE517CAE7002D08BFB4F1FF3FD6
:1024800000F00081B8F1000F00F0FF80002102F0A1
:10249000BEFC1DA9C0B2FFF7DDFB8246002840F05C
:1024A000F78054EA05030BD1844B00221A601D9B70
:1024B0009A680023B242BB41C0F2ED80804B1E609F
:1024C0007E4B1B680021A94208BFA3427FF461AF85
:1024D0004B447B4A12689342C0F08E80774B186859
:1024E0001BA94844FEF7A2F88246002840F09380DA
:1024F0001B9A744B1B689A421BD0724B1A604FF0A8
:102500000000032363F302006FF3C500654B6649C7
:102510005B1AC3F3C90363F38F106B4903F0ADFC7F
:102520001C9A1B991D9803F06EFD8246002840F00E
:1025300084804FF00000032363F302006FF3C500B3
:10254000584B594A9B1AC3F3C90363F38F105B4C72
:10255000226802EB09035D4903F08FFC4B464246BB
:1025600021681D9803F01FFD8246002840F09680E8
:1025700023684B442360524A126893427FF409AFA8
:102580001D9802F019FF1BA9FEF750F8824600289B
:1025900066D11B9A4B4B1B689A427FF7FAAE4FF0FD
:1025A0000000032363F302006FF3C5003D4B3E4977
:1025B0005B1AC3F3C90363F38F10434903F05DFC57
:1025C0001C9A1B991D9803F01EFD824600283FF4BB
:1025D000E0AE4FF00000012363F302006FF3C5008B
:1025E000304B314A9B1AC3F3C90363F38F10524631
:1025F000374903F042FCCCE61D9803F032FDB9FBED
:10260000F0F300FB139313F0FF0F3FF467AFDBB25F
:10261000A9EB030962E74FF00000012363F3020016
:102620006FF3C5001F4B204A9B1AC3F3C90363F322
:102630008F10284903F021FCABE64FF00000012386
:1026400063F302006FF3C500164B174A9B1AC3F3DE
:10265000C90363F38F1052461D4903F00EFC98E640
:102660004FF00000012363F302006FF3C5000D4B30
:102670000D4A9B1AC3F3C90363F38F10164903F085
:10268000FCFB86E64FF0030A83E64FF0030A80E680
:102690004FF0030A7DE64FF0030A7AE64FF0030A93
:1026A00077E600BF048F0000FC8E0000C897000092
:1026B0006433002054330020F0960000743300206F
:1026C0007C3500201800002034970000749700002B
:1026D000549700000C97000090970000074D284683
:1026E00004F015F802462946204606F091F9044BFD
:1026F0001A680023204606F007F975E6D497000013
:102700007433002030B5A9B03F4C4FF0FF32214662
:102710003E4802F07DF83E4D284603F0F8FF0246A1
:102720002946204606F074F94FF0FF3224A92046CE
:1027300006F076F9002403E0079803F014FC013456
:10274000012C54DC2146002002F061FB07A9C0B235
:10275000FFF780FA0028F2D1202318AA0021079859
:1027600003F002FC189A2B4B9A42E5D1002004900A
:10277000039002904023019308AB0093079B18AA93
:102780000146FEF75BFE0028D6D1079803F0EBFB6D
:102790004FF0FF3220A924A802F03AF81E4D284637
:1027A00003F0B5FF0246294620A806F031F922467B
:1027B000E31720A806F0E4F8184D284603F0A7FF19
:1027C0000246294620A806F023F91DAA402108A8A0
:1027D00003F0E7FD08A803F09AFF024608A920A825
:1027E00006F016F920A924A806F01FF9A7E7064C61
:1027F00024A9204606F019F92146044806F015F9E7
:10280000FFF7E2FC29B030BD6433002054330020D0
:10281000F49600003DB8F396FC9600000497000083
:10282000072945D903780BB1022B41D170B54288F5
:10283000130A43EA02239BB2A1F10805AB4200D27E
:1028400070BD04461B4B18608288130A43EA0223BA
:10285000838000F10806184900224A60174806F0F4
:102860004EF8A388012B0BD0002BE9D1E379012B83
:1028700019D0052BE4D12946304603F0E5FDDFE70A
:10288000E37933B1012B09D029463046FFF748FDE3
:10289000D6E729463046FFF735FFD1E729463046CF
:1028A000FFF762FDCCE729463046FFF739FDC7E761
:1028B000704700BFD03200201000002054330020A9
:1028C00030B585B00546244B186000241AE0029B01
:1028D000C3B121E040F20123994213D00C4611E02C
:1028E0001E4A5278092A1FD10023039340F2012384
:1028F000009303AB1A4A02391A4803F06EFD01280F
:1029000022D000242B6802AAC4F5007101311348BB
:10291000204498470028DADD2118029C002CD9D0E9
:102920000E4B1B78062BDBD0042BE8D10B4B5B78CE
:10293000142BE4D140F20123009303AB084A02397F
:10294000084803F04AFDDAE7039902390648FFF721
:1029500067FF0024D6E700BFCC320020803500207E
:1029600078330020823500207A33002030B589B0DA
:1029700004460D460523012206A903F043FE20B9B3
:102980000020069BA36009B030BD142304930023EC
:102990000393029301950094054B05F16402052110
:1029A000012003F052FE0028EBD00120E9E700BF30
:1029B000B5290000F8B50668002E00F090800D469D
:1029C0000446876800231A4603F00FFE30B16A6898
:1029D0002968454803F0ADFE002838D02660A7607E
:1029E00000231A462946204603F0FFFD30B16A68ED
:1029F00029683E4803F09DFE002835D02660A76078
:102A000000231A462946204603F0EFFD28B16A68E4
:102A10002968374803F08DFE90B32660A760002335
:102A20001A462946204603F0E0FD28B16A68296865
:102A3000304803F07EFE80B32660A76000231A466C
:102A40002946204603F0D1FDA0BB002648E0002324
:102A50001A4605F10801204603F0A7FD0028BDD065
:102A600000232B7401263BE000231A4605F10801E0
:102A7000204603F0BAFD0028C0D001262E742FE0B6
:102A800000231A4605F10801204603F08EFD0028B8
:102A9000C3D002232B74012622E000231A4605F13D
:102AA0000801204603F081FD0028C5D003232B74C4
:102AB000012615E06A6829680F4803F03AFE0646C9
:102AC00008B100260CE000231A4605F10801204653
:102AD00003F08BFD20B104232B74012600E00026B7
:102AE00006F00100F8BD00BF04900000D897000078
:102AF000E0970000D4970000E4970000094A93682B
:102B0000D86609490968196708494B6843F080533A
:102B10004B60002383F31188BFF36F8F9368186FA6
:102B2000704700BF74380020FC99000000ED00E001
:102B30000F498A684FF030001044EFF3098C80E8A9
:102B4000F01F202080F31188BFF36F8F094F4FF0E3
:102B50000066CA698A603E60D06E0023D36680F347
:102B6000118802F1300090E8F01F8CF3098870475B
:102B70007438002004ED00E01EF0040F0CBFEFF3EA
:102B80000880EFF30980816911F8021C0229FFD047
:102B900001B503F093FD01BD43B2002B08DB00F04B
:102BA0001F005B09012202FA00F0024A42F82300EA
:102BB000704700BF00E100E0013143B2002B08DBA9
:102BC0004901C9B203F1604303F5614383F800137F
:102BD000704700F00F004901C9B2014B195470470A
:102BE00014ED00E0014910220A60704710ED00E08A
:102BF00072B6404080F31188BFF36F8FBFF34F8FE1
:102C000030BF62B6BFF36F8F704700BF30BFFFF7B2
:102C1000FDBF00BF08B50E4B0E4A22F07F029A603E
:102C2000BFF34F8FBFF36F8FD3F8882022F4700269
:102C3000C3F88820EFF3148323F0040383F314888C
:102C400001F038FE01F042FE00F032F901F06EFEB4
:102C500000ED00E00000000001B5EFF30580A0F1F9
:102C600010004FEAC0000449014409C99847BDE873
:102C70000140024908470000F48C0000892E000042
:102C800003F0F1F8202080F3118808484FF4006128
:102C9000401880F30988EFF314800221084380F381
:102CA0001488BFF36F8FFFF7B5FF0000A860002006
:102CB000EFF30880EFF30981724601B500F090F858
:102CC00001BD00BF10B514460F4B9A6A9A6A9B6A01
:102CD00013F0020F0BD00C4B5A6B9B6A13F0800F52
:102CE00005D021B1084A936A23F080039362064B12
:102CF0009A6A9A6A9A6A9A6A42F0FF029A6203F0A2
:102D0000E9FC2070002010BD00ED00E010B5144675
:102D1000124B9A6A9A6A9B6A13F4007F0BD00F4B8E
:102D20009A6B9B6A13F4004F05D021B10B4A936A4A
:102D300023F400439362094B9A6A9B6A13F4807FE1
:102D400001D1064B9B6A054A936A43F47F43936221
:102D500003F0C0FC2070002010BD00BF00ED00E0BB
:102D6000074B9A6A9A6A9A6A9A6A9A6A9A6A9A6AF5
:102D70009A6A6FEA02426FEA12429A620020704732
:102D800000ED00E038B500230B70124BDC6A14F044
:102D900002041DD10546D86A10F0804019D00A46B9
:102DA000284628331B7843B90B4B1B784BB90B4B88
:102DB0001B889BB24BB920460BE00121FFF782FF35
:102DC00007E00121FFF7A2FF03E0FFF7C9FF00E0E2
:102DD000002038BD00ED00E029ED00E02AED00E024
:102DE00070B58AB0234B5B68C3F30803002585F3F5
:102DF0001188BFF36F8F02F07F45B5F17F4F17D178
:102E000002F00C05082D16D012F0080F0DD00C465C
:102E100000250DF127021946204603F05DFC064609
:102E20009DF8273053B10AB070BD04460125F0E784
:102E300000252C46EDE700252C46EAE72022214616
:102E400001A803F08DFC4DB1089BC3F308025AB9E9
:102E50006FEA53236FEA4323089305E0089B23F4AA
:102E6000FF7323F00103089301A9304603F022FC0D
:102E7000D9E700BF00ED00E0024A536943F01003B8
:102E80005361704700ED00E0704700BFBFF34F8F04
:102E90000549CA6802F4E062044B1343CB60BFF3F8
:102EA0004F8F00BFFDE700BF00ED00E00400FA0512
:102EB000002206E002F00F01094B0B442021197695
:102EC0000132402A0ADC53B2002BF3DB03F16043EA
:102ED00003F56143202183F80013F1E7704700BF39
:102EE000FCEC00E038B505464FF02003EFF3118409
:102EF00083F31188BFF36F8F01F016FE0A4B9B68B6
:102F0000AB4203D0204605F008FE38BD074B5B6896
:102F1000C3F308032BB1054A536843F08053536051
:102F2000F0E72046FFF7EAFD7438002000ED00E0EE
:102F3000014B024A1A63704790ED00E0AAFF44007B
:102F400010B40B6823F01F020C7A04F01F031A431D
:102F5000CB6823F01F03640943EA440343F00103F1
:102F600002498860CA600B6110BC704790ED00E0B8
:102F7000034B05225A60BFF34F8FBFF36F8F70472B
:102F800090ED00E0BFF35F8F014B00225A60704765
:102F900090ED00E038B50E4B1D68102D15D8FFF7E9
:102FA000F1FFFFF7C5FF0024A54208D9084B596877
:102FB00001EB04112046FFF7C3FF0134F4E7054B92
:102FC0001D70FFF7D5FF002038BD4FF0FF30FBE745
:102FD000EC970000A43800200023072B3DD8F0B464
:102FE00003F5A2721E4C54F8222012F0030F07D0F2
:102FF0000133DBB2072BF3D96FF01200F0BC70473E
:1030000003F14002920094B2154E03F5A27556F8F2
:10301000252022F4473222F4407246F8252056F843
:103020002570000200F4F8500A0402F44032104304
:10303000384346F8250004F1A04202F55042002032
:10304000106056F8252042F0010246F825200122A2
:1030500002FA03F3C6F80433D0E76FF012007047AA
:1030600000D0005010B4134BD3F80443E4B2002353
:1030700000E00133072B1BD803F5A2720D4951F86C
:103080002220C2F304229042F3D124FA03F212F078
:10309000010FEED00A4603F5A27051F8201021F07E
:1030A000010142F82010012101FA03F3C2F80833AC
:1030B00010BC704700D0005070B50D46C66843681C
:1030C0001B7A01F01F0444EA43142046FFF7CAFFAD
:1030D000224A04F1800152F8213023F4403342F8AF
:1030E0002130F368EB4013F0010F32D03369EB402D
:1030F00013F0010F2FD0B369EB4013F0010F13D081
:10310000F369EB4013F0010F07D1736923FA05F55A
:1031100015F0010F06D0012100E003212046FFF742
:103120005BFF17E00221F9E7736923FA05F515F053
:10313000010F0CD10321094A803452F8243023F4C2
:10314000403343EA014342F82430002002E00221E8
:10315000F1E7002070BD0020FCE700BF002584508F
:10316000F0B443685F68324B1340B3F5801F23D03F
:1031700012D9B3F5800F27D016D92E4CA34225D0F3
:10318000B3F5A00F51D1032412F0100F20D112F08B
:10319000200F41D001251CE0022B0FD0062B0FD0B1
:1031A00083B16FF0150035E0234CA34201D1072411
:1031B000EAE76FF015002DE00124E5E70424E3E7DA
:1031C0000624E1E70024DFE70224DDE70524DBE74E
:1031D0000325C2F3402312F4807F0CBF0126002692
:1031E00012F4007F05D012F4006F17D001228A403C
:1031F000BA604268127A01F01F0141EA421143EAC3
:10320000460343EA850343EA042380310B4A42F82C
:1032100021300020F0BC70470025DAE712F4806FFF
:10322000E7D001228A40FA60E3E76FF01500F1E78A
:103230000600F00002004000060010000025845047
:1032400070B5C46845682E7A01F01F0545EA461539
:10325000B2F5A03F2DD0B2F5005F34D0E56801266D
:103260008E403543E560B2F5005F32D02569012616
:103270008E4035432561B2F5A03F30D0A2690125CB
:103280008D4022EA0502A261B3F5C02F2CD0E2697D
:1032900001258D4022EA0502E261B3F5802F28D096
:1032A000636901228A4023EA02036361FFF704FF96
:1032B00070BD8035114E56F8255015F0010FCAD05B
:1032C0006FF02200F4E7E56801268E4025EA060546
:1032D000C8E7256901268E4025EA0605CAE7A269E6
:1032E00001258D402A43CEE7E26901258D402A431E
:1032F000D2E7636901228A401343D6E70025845050
:10330000F0B4C66847683269F3681340B269F1697E
:103310000A4323EA0203012200200FE04FF0020CCF
:103320000F4D803155F8214024F4403444EA0C44D8
:1033300045F8214023EA02030130520073B11A42DA
:10334000FAD03C7A00F01F0141EA44117469C4408C
:1033500014F0010FE2D14FF0030CE1E7F0BC70472D
:1033600000258450F0B4C26847681369D1680B40E7
:103370009169D069014323EA0103796809695069B9
:10338000484023EA00000122002401E001345200F9
:103390008BB11342FAD03D7A04F01F0141EA451186
:1033A000064E803156F8215025F4403546F821501C
:1033B00023EA0203EAE7F0BC704700BF002584500F
:1033C000F0B583B0002301932D4B1C680CB900218C
:1033D00008E02C48FFF7C6FF0190294B00221A6035
:1033E000F5E70131072925D801F140039B009AB286
:1033F00001238B402448D0F804030342F1D002F1AA
:10340000A04303F550431B68002BEAD001F5A273DB
:103410001D4850F82300C0F30420012303FA00F0F4
:10342000019B0343019302F1A04303F550430022A3
:103430001A60D6E7019E16B9F4B903B0F0BD114B7E
:10344000DF68796819B10D4649B10D6807E00D468E
:1034500005E07DB12B4605B12B6829461D460029A4
:10346000EAD08A6832403B691A42F2D04B6805487C
:103470009847EEE72B46F0E70248FFF741FFDCE70D
:103480007CD10050C000002000D0005008B50B4B8C
:103490001B780BB1002008BD084B01221A700022D6
:1034A00005210D20FFF788FB0D20FFF775FB044B6E
:1034B0004FF00042C3F80423ECE700BFA53800201A
:1034C00000D00050034BD3F8003413F0010FF9D0B3
:1034D000704700BF00900350024B0B600123136044
:1034E000704700BFA437002010B503F0D2FC034C96
:1034F000206003F0CAFC6060002010BDA4370020EB
:1035000043681A6847F6122399426DD010D9B1F575
:10351000E13F78D040D9B1F5E12F7DD058D8B1F551
:10352000613F7CD0424B99424FD14FF0806357E0CE
:10353000B1F5965F5BD018D8B1F5167F59D008D990
:10354000B1F5966F58D0B1F5166F0BD14FF41D231E
:1035500046E0B1F5967F02D14FF4A03340E06FF022
:10356000150070476FF015007047B1F5615F46D0E8
:1035700007D9B1F5964F44D0B1F5E14F09D12D4BA4
:103580002EE0B1F5165F01D12B4B29E06FF015004D
:1035900070476FF0150070474DF6C023994235D043
:1035A00007D9B1F5614F34D0B1F5963F0AD1234B1D
:1035B00016E0B1F5164F02D14FF41D0310E06FF085
:1035C000150070476FF0150070476FF015007047D9
:1035D000B1F5612F26D01A4B994226D14FF0805376
:1035E000C2F82435002070474FF40003F8E7154B6C
:1035F000F6E74FF41C33F3E74FF49E23F0E7124B4A
:10360000EEE7124BECE74FF0EB73E9E74FF465039D
:10361000E6E74FF46B03E3E74FF0E863E0E74FF0D2
:103620006C73DDE74FF07063DAE76FF015007047F9
:1036300090D0030000C075000050270000903A01B0
:1036400040420F0000B0130000F03A0000A04E000E
:10365000F8B50C46174643681D68C6680A6801231A
:1036600093402B4A93600B688033032142F8231068
:103670006368B3F1FF3F03D08033002142F8231089
:1036800022686368C5F80C25C5F81435A368B3F142
:10369000FF3F18D0E368B3F1FF3F14D0012202FAD4
:1036A00003F31B4A9360E3688033032142F823103D
:1036B000A3688033002142F82310E268A368C5F8AC
:1036C0000825C5F81035C16803F058FA0346E0B97B
:1036D0000822C5F800256268B2F1FF3F0AD0002237
:1036E000C5F8102106F11002C5F834250122C5F8ED
:1036F00038252A604FB1B2689268C5F84425002287
:10370000C5F848250122AA60EA601846F8BD00BF46
:103710000025845030B585B005460A4B6C460FCB6A
:1037200084E80F00002201210820FFF745FA082055
:10373000FFF732FA012221462846FFF789FF05B03C
:1037400030BD00BF448F000030B585B005466C46E3
:10375000094B0FCB84E80F00002201210920FFF75D
:103760002BFA0920FFF718FA012221462846FFF715
:103770006FFF05B030BD00BF548F0000084B1B68C1
:10378000084A1268092B01D000207047012A03D093
:10379000022A03D0002070470120704701207047A3
:1037A0003001FF003401FF00064B1B68064A126817
:1037B000092B01D000207047012A01D0002070475A
:1037C000012070473001FF003401FF00064B1B68E9
:1037D000064A1268092B01D000207047022A01D046
:1037E00000207047012070473001FF003401FF00C6
:1037F000064B1B68064A1268092B01D0002070474F
:10380000012A01D000207047012070473001FF00DD
:103810003401FF00084B1B68084A1268092B01D0CD
:1038200000207047012A03D0022A03D000207047ED
:1038300001207047012070473001FF003401FF0074
:10384000044B1B6AB3F1FF3F01D0002070470120F9
:10385000704700BF0080FF00044BDB6913F0010FCD
:1038600001D1002070470120704700BF0080FF0099
:10387000014B024A1A607047640000200090D00398
:1038800008B5FFF77BFF30B14FF050230022C3F89B
:103890001421C3F81821FFF787FF30B10123424AF2
:1038A0001360A2F63822C2F87835FFF78FFF18B1FF
:1038B0003E4B0122C3F87825FFF79AFF10B13C4B2D
:1038C0000E221A60FFF7A6FF28B13A4B00221A60B9
:1038D000043301221A600022FF2A15D802F1600386
:1038E0004FF47F0151F83330B3F1FF3F0CD002F1B8
:1038F00060034FF47F0151F83310DB0003F57F03C1
:103900005B680B600132E7E7FFF7A6FF60B9FFF7DE
:1039100097FF48B9284AD2F88C3043F44063C2F884
:103920008C30FFF7A5FF08BD244BD3F80034012BE2
:10393000FAD1224B0122C3F80425204BD3F80034DE
:10394000012BFAD1FFF788FF48B11D4AD36923F054
:103950000103D361194BD3F80034012BFAD1FFF7DF
:103960006FFF58B1164A136A23F0FF0343F0200398
:103970001362124BD3F80034012BFAD10F4B002203
:10398000C3F804250D4BD3F80034012BFAD1BFF353
:103990004F8F0949CA6802F4E0620A4B1343CB60B7
:1039A000BFF34F8F00BFFDE7384A00500040005082
:1039B000E4AE03500C47005000ED00E000900350CF
:1039C0000080FF000400FA05024B0022C3F8042522
:1039D000704700BF00900350024B0122C3F804253A
:1039E000704700BF00900350024B0222C3F8042529
:1039F000704700BF00900350044BD3F8083413F015
:103A0000010FF9D00160BFF35F8F70470090035042
:103A100010B5044603F01DFA08B9084810BDFFF7B9
:103A2000E3FF4FF0FF332360054BD3F8003413F06E
:103A3000010FF9D0FFF7C8FF0248EFE70A00AD0B0E
:103A4000009003500000AD0B0268124B9A4215D152
:103A5000C269A3F11023A3F1EF139A4210D1836836
:103A6000012B0FD8C36813B1026993420CD043698C
:103A700063B1826993420BD00020704701207047E8
:103A800001207047012070470120704700207047D7
:103A90000120704755AA00FF70B5114B9D68C5B154
:103AA0002846FFF7D1FF0646A8B9EB6813B10126F7
:103AB000304670BD2C6901E025462469002CF7D002
:103AC0002046FFF7C1FF40B9E368AB42F4D00126BE
:103AD000EEE70126ECE70126EAE70126E8E700BF6A
:103AE000EC370020002800F0918038B50446484BA0
:103AF0001B68002B6DD0464A9268002A69D0834229
:103B000004D8434A52681344834203D8414B1B688C
:103B100001209847A4F120052846FFF795FF18B12A
:103B20003C4B1B680120984754F8183C012B03D0EC
:103B3000384B1B6801209847002344F8183C54F880
:103B4000143CD3B19A68BAB954F81C2C59680A4489
:103B500020325A6054F8143C54F8102C1A6154F86E
:103B6000144C236903B1DC6020220021284602F0B6
:103B70001AFE2B46254600E000232C691CB3A268E0
:103B80000ABB63686A68134420336B6023692B6146
:103B90006B69FBB113B3AA699A61AB690BB16A692E
:103BA0005A6163696B61A269AA61DBB19D61AB690E
:103BB00003B15D612B6903B1DD6020220021204645
:103BC00002F0F1FD234683B1114B1B6913F0020F84
:103BD00013D138BDAA69002ADCD1E2E7AA690C4BEF
:103BE000DA60DAE70A4BDD60E1E7094BDB68AB61DD
:103BF00003B15D61064BDD60E6E7FFF74DFF00288E
:103C0000E7D0044B1B6801209847E2E7704700BFEC
:103C1000EC3700206C00002070B54F4BDC681D684D
:103C2000002D5AD09D68002D57D001FB00F60028CA
:103C300000F08880002900F08780B6FBF0F0884211
:103C400040F0848016F1040F00F2828016F0030F1A
:103C500008D026F00305043534B16368AB4203D2C3
:103C6000A469F9E73546F7E7002C73D0A3681BB1C8
:103C70003A4B1B68012098476268521B232A2ED9B1
:103C800005F120016318203A5A6000229A60DC6036
:103C900022691A61324860503249D96102B1D36059
:103CA00062695A61A1699961002A3FD093619A695A
:103CB00002B153610122A260656023610023636148
:103CC000A361254B1B6913F0010F32D104F12005CC
:103CD00032460021284602F066FD284670BD0123C9
:103CE000A3606369ABB1A2699A61A3690BB1626910
:103CF0005A6100236361A361174B1B6913F0010F25
:103D00000BD104F1200532460021284602F04BFD7C
:103D1000E3E7A269104BDA60E7E7FFF7BDFE002892
:103D2000EFD00E4B1B6801209847EAE70A4AD360A0
:103D3000BDE7FFF7B1FE0028C8D0084B1B68012083
:103D40009847C3E70025C8E70025C6E70025C4E774
:103D50000025C2E72546C0E7EC3700206C000020B4
:103D600055AA00FF669911EE38B505460C46142297
:103D70000021134802F017FD1249134800F038F8EB
:103D8000232C1CD915F0030304D01C44043CC3F1BC
:103D900004031D4422460021284602F004FD084B7E
:103DA0001D605C609D60203C6C609A6807491160F2
:103DB0009A68A1F11021A1F1EF11D161DA6038BD4B
:103DC000EC370020E53A0000193C000055AA00FF3E
:103DD00008B5024B1B68984708BD00BF680000206B
:103DE00008B5024B1B68984708BD00BF7000002053
:103DF000024B1860024B19600020704768000020D9
:103E00007000002031B108B50A46034B1B68002141
:103E1000984708BD704700BF74000020F8B50446FD
:103E20000D46476800F10806304603F0BAFB8742AA
:103E300051D16368B3F5807F4FD80021304603F03D
:103E4000B2FD00282ADD0021304603F084FB28B3B0
:103E5000CDB104F12C060021304603F0A4FD00286A
:103E60001EDD0021304603F076FBC8B104F13806B0
:103E70000021304603F097FD002811DD0021304677
:103E800003F069FB60B1002104F1140003F08BFD25
:103E9000002824DD35B9ADB92846F8BD124DFBE741
:103EA000114DF9E7002104F1440003F07CFD0028E6
:103EB00006DD002104F1500003F075FD0028EADC66
:103EC000094DE9E7002104F15C0003F06CFD0028D6
:103ED00007DD0025E0E7044DDEE7034DDCE7024D9A
:103EE000DAE7014DD8E700BF80BFFFFF70B5044699
:103EF00000221146FFF792FFE0B9064604F10805DB
:103F0000284603F038FB7F2816D9143400212046B8
:103F100003F021FB60B1204603F02DFB012807D9F7
:103F20002946204603F0F6FC002801DA304670BD31
:103F3000024EFBE7014EF9E7004EF7E700BEFFFF38
:103F4000F0B587B005460C46164600221146FFF72D
:103F500065FF98BB03A803F06DFA6A68214603A8C1
:103F600003F025FB044630B103A803F069FA14BB43
:103F7000204607B0F0BD05F10804214603A803F070
:103F8000C9FC002802DB6FF00304EDE76F6805F160
:103F900068030093234605F1140203A9084604F0C0
:103FA00071F804460028DFD13A46314603A803F0F1
:103FB0002FFB0446D8E7A4F58544D9E7004CD7E7A2
:103FC00080BFFFFF0023036043600B46B9B9194A65
:103FD0008260194AC260194A0261194A4261194A4B
:103FE0008261194AC261194A026202F17452A2F551
:103FF0002302A2F692424262836600207047144A6E
:104000008260144AC26002F1794202F5740202F53C
:1040100001620261104A4261104A826102F1D1429A
:1040200002F5C01202F51E62C2610D4A02620D4A1B
:104030004262E1E767E6096A85AE67BB72F36E3CF0
:104040003AF54FA57F520E518C68059BABD9831F63
:10405000D89E05C107D57C3639590EF7310BC0FF04
:10406000A78FF964A44FFABE2DE9F04FD1B00790A5
:10407000002306E09A1C50F8222008AC44F82320C4
:104080000133072BF6D900220F2A11D811F822404C
:1040900001EB820043781B0443EA0463847843EA1B
:1040A0000423C078034310A840F822300132EBE724
:1040B0004FF0000E42E10F9B0C9E4FEAF62181EA81
:1040C000B61181EA766119440E9C0D9884EA0003CA
:1040D000334063401944DFF8348758F82E301944D0
:1040E0000DF1400C5CF82E301944089D4FEA753AEA
:1040F0008AEAB50A8AEAB55A099F05EA07030A9AC5
:1041000045EA070902EA090943EA09039A440B9BB5
:1041100001EB030951444FEAF92383EAB91383EA17
:1041200079631C4486EA000309EA030343401C4404
:104130000EF1010A58F82A301C445CF82A301C445D
:104140004FEA713383EAB10383EAB15305EA010A06
:1041500045EA010B07EA0B0B4AEA0B0A53442244D7
:104160001C444FEAF22383EAB21383EA72631844D1
:1041700086EA09031340734018440EF1020A58F806
:104180002A3018445CF82A3018444FEA743383EA22
:10419000B40383EAB45301EA040A41EA040B05EAD2
:1041A0000B0B4AEA0B0A5344074418444FEAF7231F
:1041B00083EAB71383EA77631E4489EA02033B402C
:1041C00089EA03031E440EF1030A58F82A301E44FC
:1041D0005CF82A301E444FEA703383EAB00383EA66
:1041E000B05304EA000A44EA000B01EA0B0B4AEA66
:1041F0000B0A534435441E444FEAF52383EAB513B2
:1042000083EA7563994482EA07032B40534099443B
:104210000EF1040A58F82A304B445CF82A904B44BB
:104220004FEA763989EAB60989EAB65900EA060AF8
:1042300040EA060B04EA0B0B4AEA0B0AD144194484
:104240000F914B440B934FEAF12989EAB11989EA9E
:1042500071694A4487EA050901EA090987EA0909F7
:1042600091440EF1050A58F82A204A445CF82A9035
:104270004A444FEA733A8AEAB30A8AEAB35A06EA28
:10428000030946EA030B00EA0B0B49EA0B09CA448F
:1042900004EB0209CDF8389052440A924FEAF9240F
:1042A00084EAB91484EA7964274485EA010409EAB6
:1042B00004046C403C440EF1060A58F82A703C4451
:1042C0005CF82A703C444FEA723787EAB20787EA03
:1042D000B25703EA020A43EA020B06EA0B0B4AEA68
:1042E0000B0A574420440D903C4409944FEAF027B0
:1042F00087EAB01787EA70673D4481EA090900EA56
:10430000090981EA090129440EF1070058F82050F3
:1043100029445CF8200001444FEA743080EAB4007C
:1043200080EAB45002EA0405224313402B430344BD
:104330000E440C960B4408930EF1080EBEF10F0FBD
:104340007FF6B9AE10263F2E00F24D820F9A0C9BDD
:104350004FEAF32787EAB31787EA73673A440E9860
:104360000D9D80EA05071F4047403A44DFF89CB4A2
:104370005BF826701744B31E1A4610AB049253F82C
:1043800022204FEAF24484EA724484EA9224F21F23
:1043900053F822201444A6F10F0A53F82AC04FEA1A
:1043A000BC4282EAFC1282EADC021444A6F110024A
:1043B00053F82220224443F826203A4408994FEA31
:1043C000713C8CEAB10C8CEAB15E099F3C460C4012
:1043D0000A990091089941EA070C009901EA0C0C2E
:1043E00044EA0C0CF4440B9C144462444FEAF42855
:1043F00088EAB41888EA746880440C9981EA05094F
:1044000004EA090985EA0909C844711C5BF821001E
:104410008044701E059053F820004FEAF04C8CEA5F
:10442000704C8CEA902CB01F53F820008444A6F105
:104430000E0E53F82E904FEAB94080EAF91080EA48
:10444000D900604453F82A904844029143F821006F
:1044500008EB00094FEA723888EAB20888EAB258D5
:10446000089901EA020041EA020C019707EA0C0CE4
:1044700040EA0C0CC444009800EB0908E1444FEA00
:10448000F82080EAB81080EA786005440C9981EA47
:10449000040008EA000048400544B01C01465BF8EF
:1044A0002000054453F826004FEAF04C8CEA704C8B
:1044B0008CEA902C701F53F820008444A6F10D0A5A
:1044C00053F82A004FEAB04053F82A7080EAF710F8
:1044D00080EAD700604453F82EC06044039143F84B
:1044E000210005444FEA793C8CEAB90C8CEAB95CAE
:1044F00002EA090042EA090E089901EA0E0E40EAB2
:104500000E008444019F07EB050E05EB0C07009796
:104510004FEAFE2080EABE1080EA7E600C990D18FA
:1045200084EA08010EEA010161406818F71C5BF893
:1045300027100144029D53F825004FEAF04585EA13
:10454000704585EA9025301F53F8200005440195F9
:10455000A6F10C0C53F82C004FEAB04053F82C5045
:1045600080EAF51080EAD500019D284453F82A50CE
:104570002844069743F82700014400984FEA703515
:10458000074685EAB00585EAB05509EA000049EA20
:10459000070A02EA0A0A40EA0A000544089800EB02
:1045A000010A294401914FEAFA2585EABA1585EAFC
:1045B0007A652C4488EA0E050AEA050588EA0505AD
:1045C0002544341D02945BF824000544039953F8F4
:1045D00021404FEAF44080EA744080EA9420F41EBF
:1045E00053F824402044A6F10B0753F827104FEA54
:1045F000B14484EAF11484EAD104044453F82C0051
:104600002044029943F82100054401994FEA713C86
:104610008CEAB10C8CEAB15C009804460C4001466F
:104620000198084309EA0000204360442A440F929D
:1046300028440B904FEAF22C8CEAB21C8CEA726C84
:10464000C4448EEA0A08039202EA08088EEA0808BF
:10465000C444741D21465BF82440A444069D53F8CD
:1046600025504FEAF54484EA754484EA9524049A77
:1046700053F822502C44A6F10A0853F828204FEA98
:10468000B24585EAF21585EAD205254453F827405C
:104690002C44049143F8214064444FEA703787EA80
:1046A000B00787EAB057019901EA000541EA000C1A
:1046B000009901EA0C0C45EA0C052F4409EB040CA7
:1046C000CDF838C03C440A944FEAFC2787EABC176F
:1046D00087EA7C677744039D8AEA050E0CEA0E0E92
:1046E0008AEA0E0E774406F106095BF829502F443A
:1046F000029D53F825504FEAF54E8EEA754E8EEA2C
:10470000952E059A53F82250AE44A6F10902029262
:1047100053F8225029464FEAB54585EAF11585EA56
:10472000D105754453F828E0754443F829502F44C7
:104730004FEA743585EAB40585EAB45500EA040900
:1047400040EA040E019A02EA0E0E49EA0E09A94453
:104750000099CD190D954F4409974FEAF52E8EEA31
:10476000B51E8EEA756ED644039A82EA0C0C05EAF1
:104770000C0C82EA0C02724406F107085BF8285020
:1047800002EB050E049953F821504FEAF54282EAF4
:10479000754282EA952253F826100A44A6F10805CC
:1047A00053F825C04FEABC4585EAFC1585EADC05CF
:1047B0002A44029D53F825502A4443F82820724485
:1047C0004FEA773383EAB70383EAB75304EA07056E
:1047D0002743384028431844019911440C91104450
:1047E00008900836AFE50023079809E008AA52F8B8
:1047F0002340991C50F82120224440F82120013305
:10480000072BF3D9002051B0BDE8F08FE8980000E5
:1048100010B502F10044054B9C4203D9A02303F0DC
:10482000D0FF10BD4FF48060FBE700BFFEFFFF7FAD
:1048300070B506460B4B53F8204000E00834731C5B
:10484000084A52F82330A3420AD9656823682846EB
:1048500098470028F2D0002DF0D00023AB60EDE7A0
:1048600070BD00BFE899000038B5104C00E010346E
:104870000F4B9C4206D0A368002BF8D023688342DC
:10488000F5D111E00546094C00E01034084B9C427C
:1048900009D0A368002BF8D02168284601F03FFF1B
:1048A0000028F2D100E00024204638BD800000201E
:1048B000E000002008B50348034A121A002101F065
:1048C00072FF08BD08010020A838002008B506487E
:1048D000064A121A064901F043FF064A06490748EC
:1048E00001F03EFF08BD00BF0000002004010020D1
:1048F000049A000000000000049A0000000000205C
:1049000008B5084B01221A700220FFF791FF03201F
:10491000FFF78EFFFBF794FD034A137B23F001039F
:10492000137308BDA63800200038002008B5FDF735
:10493000E1F8164B83F30888154CE02384F8223005
:104940000025E57725766576A576636A43F4E0234E
:104950006362FEF791FAFEF745F94FF0FF33A36269
:10496000E3622846FFF764FF0120FFF761FF2A4654
:1049700029462846FFF7C4FF4FF02002EFF31183CA
:1049800082F31188BFF36F8FFEE700BFA868002095
:1049900000ED00E010B5064C0020064B9C4206D20C
:1049A000204604F082F8002801DB1C34F5E710BD36
:1049B000E0000020E00000200A4B834208D04A6853
:1049C0000B6813604A685A6000230B604B607047A5
:1049D000203B9B688B42F2D14B7B13F01F0FEED034
:1049E000F5E700BF9438002038B505460E4C04F1B9
:1049F000200004F0A0F8A268537B13F0200F02D02F
:104A000043F00803537348B15DB9537B13F01F0F94
:104A100007D183692BB9044BDA6104E0024BD868F3
:104A2000F2E7014BD86138BD7438002038B5437BBC
:104A300013F01F0F05D183690BB1002302E001239E
:104A400000E0002313B30546154B53F8204F9C425A
:104A500024D064B12146284604F042F8B8B934B1F4
:104A60000F4B5B6A9C4202D02468002CF1D10C4BA6
:104A700003F120022A605A6A6A6015605D626B7BEE
:104A800063F07F036B730020FFF7AEFF38BD6368F0
:104A90006B602C6063681D606560F0E70024D8E7F8
:104AA0007438002038B50446183004F0C7F80023E5
:104AB0004FF02002EFF3118582F31188BFF36F8F5F
:104AC00010E0637B43F010036373154B9868A042BA
:104AD00014BF00200120FFF787FF85F31188BFF383
:104AE0006F8F012363B994F90D30002BE9DA214669
:104AF0000C48FFF761FF637B03F07F036373E0E71C
:104B0000074B9B68A34200D038BD4FF02003EFF362
:104B1000118083F31188BFF36F8F03F0FEFFF3E77B
:104B2000743800209438002070B50546836D03B1B9
:104B3000984705F1180004F081F800234FF0200297
:104B4000EFF3118682F31188BFF36F8F3AE00122F1
:104B500041E029462A48FFF72FFF6B7B03F07F03D4
:104B60006B733EE013F0020F43D0284603F0B4FF0E
:104B70002946FFF721FF6B7B23F002036B730023B1
:104B8000AB6036E004F1180004F058F8204603F05A
:104B9000A3FF2146FFF710FF637B23F0020363733B
:104BA0000023A36023672046FFF740FF05F1280399
:104BB000AC6AA34201D0002CE4D186F31188BFF384
:104BC0006F8F01231A46CBB96B7B13F01F0F02D1F5
:104BD000A9690029BBD012F0010FC3D013F0800FD8
:104BE000B7D1084B9868A84214BF00200120FFF7F6
:104BF000FBFE6B7B43F008036B73D7E770BD00BF10
:104C0000943800207438002038B5B1F1FF3F08BF58
:104C1000B0F1FF3F1AD003F061FF0446C5176901E8
:104C2000430141EAD0621B1A62EB0502910041EA9E
:104C3000937198000A46031945EB0202D00040EA3E
:104C40005370D900CB0B43EA404038BD034B986802
:104C5000FFF728FF4FF0FF30F7E700BF7438002060
:104C6000014B9868704700BF7438002038B504467F
:104C70004FF02003EFF3118583F31188BFF36F8F9B
:104C800003F076FF40B10022026703F05BFF294684
:104C9000064803F02FFF38BDA368E268934203D0B3
:104CA00001221344A360F2E70022FAE79C380020B7
:104CB000034B1868984200D070470020FCE700BF03
:104CC0007800002030B1044A5268904201D0006858
:104CD00070470020704700BF7800002008B5044BE3
:104CE0001B680BB1002008BDFDF7D0F8FBE700BF43
:104CF0009C3800202DE978484FF02003EFF3118510
:104D000083F31188BFF36F8F244B1860FFF7D0FF38
:104D1000044628B38268214B1B689A4220DC204E4F
:104D2000D6E9000110EB020B41EBE27CC6E900BCC6
:104D30009B1A1A4A13600023A360204603F05DFF0C
:104D400085F31188BFF36F8FE368204698474FF0D3
:104D50002003EFF3118583F31188BFF36F8FD5E73D
:104D600024B1A3680D4A12689B1AA3600C480B4932
:104D70000C68D0E9002312EB040B43EBE47CC0E9A0
:104D800000BC00240C6003F04AFF2146FDF750F8F8
:104D900085F31188BFF36F8FBDE878889C380020B9
:104DA0000801002010B5064C064B9C4206D2A268B2
:104DB0006168204603F060FF1434F5E7002010BD61
:104DC000E0000020E000002070B582B0054601A997
:104DD0000079FBF709FCAC68019B1C442B681D891A
:104DE00066194FF02002EFF3118382F31188BFF3AD
:104DF0006F8F01F068FAFCF77DFC635983F3088834
:104E0000002383F314887368984702B070BD21B102
:104E1000012904D06FF01500704702207047072069
:104E20007047FF20704738B515461C4601F09CF8C6
:104E300058B901460023A34205D2EA5CFF2A06D1F5
:104E40000133DBB2F7E7012101E04FF0FF31084603
:104E500038BD08B5006A01F004F908BD2DE9F0413C
:104E600082B007460E4615460020FFF7D0FF01A985
:104E7000C0B2FCF7EFFE40B14FF00108019801F01D
:104E800072F8404602B0BDE8F0812C2303FB0673A4
:104E90001C89DB681C4404236A462146019801F002
:104EA00063F8804640BB2C2000FB06704689BDF8A5
:104EB000002046F608139A420CD006BBBDF800202D
:104EC00046F607139A421DD13444BDF802301C4403
:104ED0002C60D3E7BDF802108E4202D04FF00308D9
:104EE000CCE704236A462144019801F03DF80028EC
:104EF000E4D04FF00108C1E74FF00108BEE74FF0E2
:104F00000308BBE74FF00308B8E7F0B583B00746E6
:104F10000C460020FFF77BFF01A9C0B2FCF79AFE08
:104F2000D0B906460198FFF77CFF0546019801F0CD
:104F30001AF82C2000FB04700023032B05D8C25C58
:104F4000954207D10133DBB2F7E701233BB130468D
:104F500003B0F0BD0023F9E74FF0FF36F7E74FF05D
:104F6000FF36F4E710B582B04FF480730193022945
:104F700005D0072911D1026D00F1540402E0426A04
:104F800000F12804084601A9FCF778FE034608B999
:104F9000019A2260184602B010BD0123FAE738B525
:104FA00005460221FFF7DEFF10B10124204638BD7F
:104FB00007212846FFF7D6FF044608B10124F5E78C
:104FC0002846FFF746FFE865F0E7F8B505460F46C7
:104FD00016460024012C10DC33462C2202FB04521E
:104FE00021462846FBF78CFE034608B90134F1E759
:104FF000002C03DD17B9002300E000231846F8BD9C
:1050000070B505460E460020FCF758F90446022804
:1050100005D0042803D0032801D0204670BD3246B5
:1050200001212846FBF75CFB012803D00028F4D0BF
:105030000524F2E70446F0E7002383718360C36030
:105040000123437103600371C37170474379012BDE
:1050500001D0002070470368012B01D00020704769
:105060000379012B01D0002070470120704738B52B
:105070000546FBF795FB024695F85840E31EDBB268
:10508000012B0FD9022C03D0042C01D0032C07D103
:10509000002000F0DBF8024610B1FF2385F85830FD
:1050A000104638BD002000F0E4F802460028E9D0A0
:1050B000FF2485F85840E7E770B584B006460C46F3
:1050C00003A90220FCF7C6FD30B10124039800F0CB
:1050D0004AFF204604B070BD039800F06DF9054604
:1050E000F16D204600F0E5F80544039800F0B9FFA3
:1050F00006460398FFF795FE0822014601A801F035
:1051000052FB23798DF80430334601AA29460398CF
:1051100000F049FF04460028D8D00124D6E708B59E
:1051200000F071FF08BD2DE9F04706460F4600214B
:105130000846FFF76CFE044601210020FFF767FEDA
:105140003B789C4223D0984223D1012399462C22BC
:1051500002FB03639C6A013CF06D00F01AF9804683
:1051600000252C2303FB09635B6A03EBC402D2F81E
:1051700004A053F834101B685246C91A3846FFF78A
:10518000CEFF013C5544A845EBD8BDE8F08700238D
:10519000DCE70120F9E730B583B00C4615466946D7
:1051A000072000F075F9E97901290DD19DF8033048
:1051B000012B0ED0A968204600F0BAF92046FCF772
:1051C0006DF8002003B030BD0022204600F09EF9AB
:1051D000ECE7204600F093F9ECE770B582B00646A4
:1051E0000D46FBF7C3FE0446E86060B3022829D1F0
:1051F00001A90220FCF72EFD08B1012423E02A4674
:1052000031460198FBF7D8FD044618B1019800F02B
:10521000AAFE18E0019800F0D8F801230DF103026E
:1052200001460198FFF7FFFD012806D09DF80330E5
:1052300003F00F03EB710446E8E701238DF8033018
:105240002046F3E70724204602B070BD10B582B0B7
:1052500001A90220FCF7FEFC18B10124204602B08F
:1052600010BD019800F044F90446019800F07BFE5F
:10527000F4E710B584B003A90220FCF7EBFC18B1E9
:105280000124204604B010BD01A9039800F0A0F845
:10529000044660B99DF80730032B03D0039800F053
:1052A00062FEEEE7039800F02AF90446F6E70124CF
:1052B000F4E730B44379012B10D0022201FB02F451
:1052C000012B0DD00D020379013B0268013A02FB6C
:1052D00004F201FB0323581930BC70470122EDE7AB
:1052E0000025F0E7012800D170470220FCE72DE9F6
:1052F000F04383B006460F4690461C4600F0B1FED0
:10530000082C21D80546082802D94FF0FF331DE0AC
:105310003046FFF786FD8146A54200D2254622464B
:105320004146684601F01CFA2A1B49460DEB040071
:1053300001F039FA2B466A463946304600F033FE12
:10534000034618B1012301E04FF0FF33184603B0C4
:10535000BDE8F08300B583B08DF80420012301AAD5
:10536000FFF7C5FF03B05DF804FB04280BD0052848
:1053700004D111F1FF3018BF01207047884214BFDB
:105380000020012070470120704700EB4003180205
:10539000704708B5FFF7F9FF303008BD0B78022BD6
:1053A00007D0072B02D14FF4407070474FF0FF3009
:1053B00070474FF44070704710B5044600F051FE3E
:1053C000FFF7E7FFA368181A10BD806828387047F8
:1053D00030B587B005460C468168102302AA103903
:1053E000FFF721FD00284ADB01283CD1032323706D
:1053F0002846FFF7EAFF01230DF107020146284680
:10540000FFF711FD00283DDB9DF8073003F00F0288
:1054100062701B092371012801D0042A03D90123DA
:10542000637000232371A9680123A21C2039284638
:10543000FFF7F9FC002827DB012819D0A078FFF737
:1054400051FFA070A9680123E21C18392846FFF714
:10545000EAFC00281ADB01280DD0E078FFF742FFB4
:10546000E07000200CE002A8FBF7D4FE2070BFE73C
:105470000323A370E6E70323E370002000E001208C
:1054800007B030BD0120FBE70120F9E70120F7E775
:1054900010B582B00C4601A9C0B2FCF7DBFB18B115
:1054A0000124204602B010BD21460198FFF790FF6D
:1054B0000446019800F057FDF3E730B583B00D4680
:1054C00001A9FBF7B3FE044610B1204603B030BD7E
:1054D000019C2046FFF779FF04232A46A0F108012A
:1054E000204600F041FD0446019800F03CFDECE749
:1054F00008B5816801222039FFF72CFF08BD08B5E7
:10550000816801221839FFF725FF08BD10B582B068
:10551000044641EA02128DF80720FFF756FF0123E7
:105520000DF1070201462046FFF7E1FE02B010BD73
:1055300010B582B004460191FFF747FF04230DEB3D
:105540000302A0F108012046FFF7D1FE02B010BD12
:105550002DE9F0439DB015469946249FDDF89480CF
:10556000279C01A803F045F8002101A8FEF72AFDB9
:1055700014B1289B002B06DC2B89EE6833446E891E
:105580001E44002513E01A46214601A803F037F80F
:10559000F2E723463A462946484600F0E5FC034632
:1055A00088B92246394601A803F029F82544B542B6
:1055B00004D2741B4445ECD94446EAE7269901A875
:1055C00003F060F8002318461DB0BDE8F0832DE914
:1055D000F04184B004460E461546302303AA2946FE
:1055E000304601F0C1FCA8BB3368039A1344AB42B8
:1055F00033D104F108073A462946304601F0C7FC8A
:1056000028BB04F1140842462946304601F0BFFC8D
:10561000E8B9384601F0C5FF60603368AB421FD17E
:10562000CDF804800022009213463946204602F04D
:105630005BFFC0B92046FEF759FC0546B0B93846B5
:1056400001F0AFFF6060284604B0BDE8F0816FF064
:105650000205F8E74FF0FF35F5E76FF00105F2E7D7
:105660006FF00305EFE76FF00405ECE76FF0050559
:10567000E9E7F0B5A5B006460F4600230893DF24FE
:1056800007E025462A466946304601F069F82E446F
:10569000641B002C1DDD09A802F0ABFF002109A846
:1056A000FEF790FC2022394609A802F0A8FF042248
:1056B00008A909A802F0A3FF694609A802F0E2FFC1
:1056C0009DF8233001338DF823301F2CD9DD2025A0
:1056D000D8E725B0F0BD2DE9F04383B000284AD0CB
:1056E000054600294AD0002A4BD0994617460C4659
:1056F0000E89CB681E4404230DEB03023146384665
:1057000000F032FC804600283ED1BDF8042046F669
:1057100008139A421ED06389002B3BD1BDF80420A8
:1057200046F607139A4238D12C606F60A5F80890AE
:105730009DF82830AB7263893344EB60638933444E
:10574000BDF8062013446B6104362E61404603B059
:10575000BDE8F0836389BDF806108B4217D104239E
:105760000DEB03023144384600F0FEFB0028D5D093
:105770004FF0FF38EAE74FF0FF38E7E74FF0FF3828
:10578000E4E74FF0FF38E1E74FF0FF38DEE74FF096
:10579000FF38DBE74FF0FF38D8E74FF0FF38D5E7A9
:1057A00000284DD0F0B583B00446006800284BD0E7
:1057B0001D4616460F4663680BBB4FF0FF313AE0BB
:1057C00004230DEB03022169606800F0CDFB014664
:1057D00000283CD1A37A1BB12269E3689A4239D2EE
:1057E00023894FF6FF72934217D0BDF804209342ED
:1057F00013D0BDF8060023691844043020612069E5
:10580000636998421AD223685B89002BD8D0E36879
:105810008342D5D104302061D2E715B1BDF8043000
:105820002B80236904333B60BDF806303380226946
:10583000134404332361084603B0F0BD0121FAE7A5
:105840004FF0FF31084670474FF0FF31F3E74FF05C
:10585000FF31F0E70121EEE7F0B59DF814401CB1EF
:105860004FF0020E00271AE04FF0000EFAE713F493
:10587000004F11D101352346072D0FD85C00A4B28B
:105880008F42F4D210F807C08026EE401CEA060FC3
:1058900018BF44F00104EAE75440EBE701370EEB90
:1058A0000104BC4201D90025E6E71846F0BD0020FE
:1058B000704738B504460D464520A047294652207A
:1058C000A04729465220A04738BD2DE9F04F83B0AC
:1058D0008146009190461E469DF830B000254FF05D
:1058E000100A2F46402407E009282AD95723009997
:1058F0001844C84701350127032C33DD043CC4F1AB
:105900002002A4F1200328FA04F006FA02F2104360
:1059100026FA03F3184310F00F00E5D1002FE3D16E
:10592000002CE1D00AF1FF3301930D9B9A4516DC60
:10593000BBF1010F07D0BBF1020F0AD0DDF804A0C4
:10594000DAE73023D3E700993020C847DDF804A018
:10595000D2E700992020C847DDF804A0CCE7DDF8A5
:1059600004A0C9E7BBF1030F02D003B0BDE8F08F7C
:105970000D9BC5EB430503E000992020C847254651
:105980006C1E002DF8DCF0E72DE9F04F87B00746DC
:105990000E46144605934FF000084FF0FF39C246FB
:1059A000454602E03146B84701342078002800F02F
:1059B000888145B92528F5D14FF000084FF0FF390F
:1059C000C2460125F0E70246A0F12503552B00F25F
:1059D0006A81DFE813F0630168016801680168010A
:1059E00068016801680170016801680156005D0086
:1059F0005D005D005D005D005D005D005D005D00BF
:105A0000680168016801680168016801680168014E
:105A1000680168016801680168016801680168013E
:105A2000680168016801680168016801680168012E
:105A30006801680168016801680168010D01680179
:105A4000680168016801680168016801680168010E
:105A500068015B018B0068016801680171008B00BF
:105A6000680168017100680168016801030168014B
:105A700068013B016801D000680168010D016801FF
:105A80007100B9F1000F03DABAF1000F00F01681CE
:105A9000B9F1000F0DDB09EB89034FEA430991448B
:105AA000A9F13009BAF1000F7FF47EAF4FF0020A7E
:105AB0007AE7A2F13009F5E768280CD06C2810D0FD
:105AC000B8F1000F0BD031462520B8473146207879
:105AD000B847002568E7B8F1680FEFD14820804645
